{
  "contractName": "Ticketing",
  "abi": [
    {
      "inputs": [
        {
          "internalType": "uint256",
          "name": "",
          "type": "uint256"
        },
        {
          "internalType": "address",
          "name": "",
          "type": "address"
        }
      ],
      "name": "attendees",
      "outputs": [
        {
          "internalType": "address",
          "name": "attendee",
          "type": "address"
        },
        {
          "internalType": "uint256",
          "name": "ticketId",
          "type": "uint256"
        }
      ],
      "stateMutability": "view",
      "type": "function"
    },
    {
      "inputs": [],
      "name": "eventCount",
      "outputs": [
        {
          "internalType": "uint256",
          "name": "",
          "type": "uint256"
        }
      ],
      "stateMutability": "view",
      "type": "function"
    },
    {
      "inputs": [
        {
          "internalType": "uint256",
          "name": "",
          "type": "uint256"
        }
      ],
      "name": "eventIds",
      "outputs": [
        {
          "internalType": "uint256",
          "name": "",
          "type": "uint256"
        }
      ],
      "stateMutability": "view",
      "type": "function"
    },
    {
      "inputs": [
        {
          "internalType": "uint256",
          "name": "",
          "type": "uint256"
        }
      ],
      "name": "events",
      "outputs": [
        {
          "internalType": "string",
          "name": "name",
          "type": "string"
        },
        {
          "internalType": "uint256",
          "name": "id",
          "type": "uint256"
        },
        {
          "internalType": "address",
          "name": "organizer",
          "type": "address"
        },
        {
          "internalType": "uint256",
          "name": "pricePerTicket",
          "type": "uint256"
        },
        {
          "internalType": "uint256",
          "name": "maxTickets",
          "type": "uint256"
        },
        {
          "internalType": "uint256",
          "name": "ticketCount",
          "type": "uint256"
        }
      ],
      "stateMutability": "view",
      "type": "function"
    },
    {
      "inputs": [
        {
          "internalType": "string",
          "name": "_name",
          "type": "string"
        },
        {
          "internalType": "uint256",
          "name": "_pricePerTicket",
          "type": "uint256"
        },
        {
          "internalType": "uint256",
          "name": "_maxTickets",
          "type": "uint256"
        }
      ],
      "name": "createEvent",
      "outputs": [
        {
          "internalType": "uint256",
          "name": "",
          "type": "uint256"
        }
      ],
      "stateMutability": "nonpayable",
      "type": "function"
    },
    {
      "inputs": [
        {
          "internalType": "uint256",
          "name": "_eventID",
          "type": "uint256"
        }
      ],
      "name": "purchaseTicket",
      "outputs": [
        {
          "internalType": "uint256",
          "name": "",
          "type": "uint256"
        }
      ],
      "stateMutability": "payable",
      "type": "function"
    },
    {
      "inputs": [],
      "name": "getAllEventIds",
      "outputs": [
        {
          "internalType": "uint256[]",
          "name": "",
          "type": "uint256[]"
        }
      ],
      "stateMutability": "view",
      "type": "function"
    }
  ],
  "bytecode": "0x60806040526000805534801561001457600080fd5b50611035806100246000396000f3fe6080604052600436106100705760003560e01c806371be2e4a1161004e57806371be2e4a14610120578063998f6ac01461014b5780639e9580f614610188578063b948348c146101c557610070565b8063071e9ed4146100755780630b791430146100b3578063682e54cd146100f5575b600080fd5b34801561008157600080fd5b5061009c6004803603810190610097919061095b565b6101f5565b6040516100aa9291906109b9565b60405180910390f35b3480156100bf57600080fd5b506100da60048036038101906100d591906109e2565b610246565b6040516100ec96959493929190610aa8565b60405180910390f35b34801561010157600080fd5b5061010a61032a565b6040516101179190610bce565b60405180910390f35b34801561012c57600080fd5b50610135610382565b6040516101429190610bf0565b60405180910390f35b34801561015757600080fd5b50610172600480360381019061016d91906109e2565b610388565b60405161017f9190610bf0565b60405180910390f35b34801561019457600080fd5b506101af60048036038101906101aa9190610d40565b6103ac565b6040516101bc9190610bf0565b60405180910390f35b6101df60048036038101906101da91906109e2565b6104e7565b6040516101ec9190610bf0565b60405180910390f35b6003602052816000526040600020602052806000526040600020600091509150508060000160009054906101000a900473ffffffffffffffffffffffffffffffffffffffff16908060010154905082565b600160205280600052604060002060009150905080600001805461026990610dde565b80601f016020809104026020016040519081016040528092919081815260200182805461029590610dde565b80156102e25780601f106102b7576101008083540402835291602001916102e2565b820191906000526020600020905b8154815290600101906020018083116102c557829003601f168201915b5050505050908060010154908060020160009054906101000a900473ffffffffffffffffffffffffffffffffffffffff16908060030154908060040154908060050154905086565b6060600280548060200260200160405190810160405280929190818152602001828054801561037857602002820191906000526020600020905b815481526020019060010190808311610364575b5050505050905090565b60005481565b6002818154811061039857600080fd5b906000526020600020016000915090505481565b600080600054905060006040518060c001604052808781526020018381526020013373ffffffffffffffffffffffffffffffffffffffff168152602001868152602001858152602001600081525090508060016000848152602001908152602001600020600082015181600001908051906020019061042c929190610810565b506020820151816001015560408201518160020160006101000a81548173ffffffffffffffffffffffffffffffffffffffff021916908373ffffffffffffffffffffffffffffffffffffffff160217905550606082015181600301556080820151816004015560a0820151816005015590505060028290806001815401808255809150506001900390600052602060002001600090919091909150556001826104d59190610e3f565b60008190555081925050509392505050565b600081600060016000838152602001908152602001600020600301549050803411610547576040517f08c379a000000000000000000000000000000000000000000000000000000000815260040161053e90610f07565b60405180910390fd5b83600060016000838152602001908152602001600020905080600401548160050154106105a9576040517f08c379a00000000000000000000000000000000000000000000000000000000081526004016105a090610f73565b60405180910390fd5b8533600073ffffffffffffffffffffffffffffffffffffffff166003600084815260200190815260200160002060008373ffffffffffffffffffffffffffffffffffffffff1673ffffffffffffffffffffffffffffffffffffffff16815260200190815260200160002060000160009054906101000a900473ffffffffffffffffffffffffffffffffffffffff1673ffffffffffffffffffffffffffffffffffffffff161461068d576040517f08c379a000000000000000000000000000000000000000000000000000000000815260040161068490610fdf565b60405180910390fd5b6000600160008a815260200190815260200160002090506000816005015490506001816106ba9190610e3f565b826005018190555060405180604001604052803373ffffffffffffffffffffffffffffffffffffffff16815260200182815250600360008c815260200190815260200160002060003373ffffffffffffffffffffffffffffffffffffffff1673ffffffffffffffffffffffffffffffffffffffff16815260200190815260200160002060008201518160000160006101000a81548173ffffffffffffffffffffffffffffffffffffffff021916908373ffffffffffffffffffffffffffffffffffffffff160217905550602082015181600101559050508160020160009054906101000a900473ffffffffffffffffffffffffffffffffffffffff1673ffffffffffffffffffffffffffffffffffffffff166108fc83600301549081150290604051600060405180830381858888f193505050501580156107ff573d6000803e3d6000fd5b508098505050505050505050919050565b82805461081c90610dde565b90600052602060002090601f01602090048101928261083e5760008555610885565b82601f1061085757805160ff1916838001178555610885565b82800160010185558215610885579182015b82811115610884578251825591602001919060010190610869565b5b5090506108929190610896565b5090565b5b808211156108af576000816000905550600101610897565b5090565b6000604051905090565b600080fd5b600080fd5b6000819050919050565b6108da816108c7565b81146108e557600080fd5b50565b6000813590506108f7816108d1565b92915050565b600073ffffffffffffffffffffffffffffffffffffffff82169050919050565b6000610928826108fd565b9050919050565b6109388161091d565b811461094357600080fd5b50565b6000813590506109558161092f565b92915050565b60008060408385031215610972576109716108bd565b5b6000610980858286016108e8565b925050602061099185828601610946565b9150509250929050565b6109a48161091d565b82525050565b6109b3816108c7565b82525050565b60006040820190506109ce600083018561099b565b6109db60208301846109aa565b9392505050565b6000602082840312156109f8576109f76108bd565b5b6000610a06848285016108e8565b91505092915050565b600081519050919050565b600082825260208201905092915050565b60005b83811015610a49578082015181840152602081019050610a2e565b83811115610a58576000848401525b50505050565b6000601f19601f8301169050919050565b6000610a7a82610a0f565b610a848185610a1a565b9350610a94818560208601610a2b565b610a9d81610a5e565b840191505092915050565b600060c0820190508181036000830152610ac28189610a6f565b9050610ad160208301886109aa565b610ade604083018761099b565b610aeb60608301866109aa565b610af860808301856109aa565b610b0560a08301846109aa565b979650505050505050565b600081519050919050565b600082825260208201905092915050565b6000819050602082019050919050565b610b45816108c7565b82525050565b6000610b578383610b3c565b60208301905092915050565b6000602082019050919050565b6000610b7b82610b10565b610b858185610b1b565b9350610b9083610b2c565b8060005b83811015610bc1578151610ba88882610b4b565b9750610bb383610b63565b925050600181019050610b94565b5085935050505092915050565b60006020820190508181036000830152610be88184610b70565b905092915050565b6000602082019050610c0560008301846109aa565b92915050565b600080fd5b600080fd5b7f4e487b7100000000000000000000000000000000000000000000000000000000600052604160045260246000fd5b610c4d82610a5e565b810181811067ffffffffffffffff82111715610c6c57610c6b610c15565b5b80604052505050565b6000610c7f6108b3565b9050610c8b8282610c44565b919050565b600067ffffffffffffffff821115610cab57610caa610c15565b5b610cb482610a5e565b9050602081019050919050565b82818337600083830152505050565b6000610ce3610cde84610c90565b610c75565b905082815260208101848484011115610cff57610cfe610c10565b5b610d0a848285610cc1565b509392505050565b600082601f830112610d2757610d26610c0b565b5b8135610d37848260208601610cd0565b91505092915050565b600080600060608486031215610d5957610d586108bd565b5b600084013567ffffffffffffffff811115610d7757610d766108c2565b5b610d8386828701610d12565b9350506020610d94868287016108e8565b9250506040610da5868287016108e8565b9150509250925092565b7f4e487b7100000000000000000000000000000000000000000000000000000000600052602260045260246000fd5b60006002820490506001821680610df657607f821691505b60208210811415610e0a57610e09610daf565b5b50919050565b7f4e487b7100000000000000000000000000000000000000000000000000000000600052601160045260246000fd5b6000610e4a826108c7565b9150610e55836108c7565b9250827fffffffffffffffffffffffffffffffffffffffffffffffffffffffffffffffff03821115610e8a57610e89610e10565b5b828201905092915050565b7f46756e64732073656e74206d75737420636f766572207072696365206f66207460008201527f69636b6574210000000000000000000000000000000000000000000000000000602082015250565b6000610ef1602683610a1a565b9150610efc82610e95565b604082019050919050565b60006020820190508181036000830152610f2081610ee4565b9050919050565b7f4e6f2072656d61696e696e67207469636b657473210000000000000000000000600082015250565b6000610f5d601583610a1a565b9150610f6882610f27565b602082019050919050565b60006020820190508181036000830152610f8c81610f50565b9050919050565b7f5573657220616c7265616479206f776e732061207469636b6574210000000000600082015250565b6000610fc9601b83610a1a565b9150610fd482610f93565b602082019050919050565b60006020820190508181036000830152610ff881610fbc565b905091905056fea2646970667358221220e653096a5c7307ef7e667d195be17068f3b0e829494725e5d7cc77a328644a0464736f6c63430008090033",
  "immutableReferences": {},
  "source": "// SPDX-License-Identifier: MIT\npragma solidity >=0.5.16 <0.9.0;\n\ncontract Ticketing {\n\n  uint public eventCount = 0;\n\n  mapping(uint => Event) public events;\n  uint[] public eventIds;\n  mapping(uint => mapping(address => Attendee)) public attendees;\n\n  struct Attendee {\n    address attendee;\n    uint ticketId;\n  }\n\n  struct Event {\n    string name;\n    uint id;\n    address organizer;\n    uint pricePerTicket;\n    uint maxTickets;\n    uint ticketCount;\n  }\n\n  modifier paidEnough(uint _eventID) {\n    uint pricePerTicket = events[_eventID].pricePerTicket;\n    require(msg.value > pricePerTicket, \"Funds sent must cover price of ticket!\");\n    _;\n  }\n\n  modifier hasRemainingTickets(uint _eventID) {\n    Event storage eventStruct = events[_eventID];\n    require(eventStruct.ticketCount < eventStruct.maxTickets, \"No remaining tickets!\");\n    _;\n  }\n\n  modifier doesNotAlreadyOwn(uint _eventID, address _purchaser) {\n    require(attendees[_eventID][_purchaser].attendee == address(0), \"User already owns a ticket!\");\n    _;\n  }\n\n  function createEvent(string memory _name, uint _pricePerTicket, uint _maxTickets) public returns (uint) {\n    // registers a new event and returns the newly created event id\n    uint eventId = eventCount;\n\n    Event memory eventStruct = Event({\n      name: _name,\n      id: eventId,\n      organizer: msg.sender,\n      pricePerTicket: _pricePerTicket,\n      maxTickets: _maxTickets,\n      ticketCount: 0\n    });\n\n    events[eventId] = eventStruct;\n    eventIds.push(eventId);\n\n    eventCount = eventId + 1;\n\n    return eventId;\n  }\n\n  function purchaseTicket(uint _eventID) public payable paidEnough(_eventID) hasRemainingTickets(_eventID) doesNotAlreadyOwn(_eventID, msg.sender) returns (uint) {\n    // purchase a ticket from the provided event\n    Event storage eventStruct = events[_eventID];\n    uint ticketId = eventStruct.ticketCount;\n    eventStruct.ticketCount = ticketId + 1;\n\n    attendees[_eventID][msg.sender] = Attendee({\n      attendee: msg.sender,\n      ticketId: ticketId\n    });\n\n    payable(eventStruct.organizer).transfer(eventStruct.pricePerTicket);\n\n    return ticketId;\n  }\n\n  function getAllEventIds() public view returns (uint[] memory) {\n    return eventIds;\n  }\n}\n",
  "sourcePath": "/Users/kevin/consensys/blockchain-developer-bootcamp-final-project/web3/contracts/Ticketing.sol",
  "compiler": {
    "name": "solc",
    "version": "0.8.9+commit.e5eed63a.Emscripten.clang"
  },
  "schemaVersion": "3.4.3",
  "updatedAt": "2021-11-25T08:42:01.392Z",
  "devdoc": {
    "kind": "dev",
    "methods": {},
    "version": 1
  },
  "userdoc": {
    "kind": "user",
    "methods": {},
    "version": 1
  }
}