{
  "contractName": "Ticketing",
  "abi": [
    {
      "inputs": [],
      "stateMutability": "nonpayable",
      "type": "constructor"
    },
    {
      "anonymous": false,
      "inputs": [
        {
          "indexed": true,
          "internalType": "address",
          "name": "previousOwner",
          "type": "address"
        },
        {
          "indexed": true,
          "internalType": "address",
          "name": "newOwner",
          "type": "address"
        }
      ],
      "name": "OwnershipTransferred",
      "type": "event"
    },
    {
      "inputs": [],
      "name": "eventCount",
      "outputs": [
        {
          "internalType": "uint256",
          "name": "",
          "type": "uint256"
        }
      ],
      "stateMutability": "view",
      "type": "function"
    },
    {
      "inputs": [
        {
          "internalType": "uint256",
          "name": "",
          "type": "uint256"
        }
      ],
      "name": "eventIds",
      "outputs": [
        {
          "internalType": "uint256",
          "name": "",
          "type": "uint256"
        }
      ],
      "stateMutability": "view",
      "type": "function"
    },
    {
      "inputs": [
        {
          "internalType": "uint256",
          "name": "",
          "type": "uint256"
        }
      ],
      "name": "events",
      "outputs": [
        {
          "internalType": "string",
          "name": "name",
          "type": "string"
        },
        {
          "internalType": "uint256",
          "name": "id",
          "type": "uint256"
        },
        {
          "internalType": "address",
          "name": "organizer",
          "type": "address"
        },
        {
          "internalType": "uint256",
          "name": "pricePerTicketInUsd",
          "type": "uint256"
        },
        {
          "internalType": "uint256",
          "name": "maxTickets",
          "type": "uint256"
        },
        {
          "internalType": "uint256",
          "name": "ticketCount",
          "type": "uint256"
        }
      ],
      "stateMutability": "view",
      "type": "function"
    },
    {
      "inputs": [],
      "name": "owner",
      "outputs": [
        {
          "internalType": "address",
          "name": "",
          "type": "address"
        }
      ],
      "stateMutability": "view",
      "type": "function"
    },
    {
      "inputs": [],
      "name": "renounceOwnership",
      "outputs": [],
      "stateMutability": "nonpayable",
      "type": "function"
    },
    {
      "inputs": [],
      "name": "ticketCount",
      "outputs": [
        {
          "internalType": "uint256",
          "name": "",
          "type": "uint256"
        }
      ],
      "stateMutability": "view",
      "type": "function"
    },
    {
      "inputs": [
        {
          "internalType": "uint256",
          "name": "",
          "type": "uint256"
        }
      ],
      "name": "tickets",
      "outputs": [
        {
          "internalType": "uint256",
          "name": "ticketId",
          "type": "uint256"
        },
        {
          "internalType": "uint256",
          "name": "eventId",
          "type": "uint256"
        }
      ],
      "stateMutability": "view",
      "type": "function"
    },
    {
      "inputs": [
        {
          "internalType": "address",
          "name": "newOwner",
          "type": "address"
        }
      ],
      "name": "transferOwnership",
      "outputs": [],
      "stateMutability": "nonpayable",
      "type": "function"
    },
    {
      "inputs": [
        {
          "internalType": "uint256",
          "name": "_priceInUsd",
          "type": "uint256"
        }
      ],
      "name": "getPriceInWei",
      "outputs": [
        {
          "internalType": "uint256",
          "name": "",
          "type": "uint256"
        }
      ],
      "stateMutability": "view",
      "type": "function"
    },
    {
      "inputs": [
        {
          "internalType": "string",
          "name": "_name",
          "type": "string"
        },
        {
          "internalType": "uint256",
          "name": "_pricePerTicketInUsd",
          "type": "uint256"
        },
        {
          "internalType": "uint256",
          "name": "_maxTickets",
          "type": "uint256"
        }
      ],
      "name": "createEvent",
      "outputs": [
        {
          "internalType": "uint256",
          "name": "",
          "type": "uint256"
        }
      ],
      "stateMutability": "nonpayable",
      "type": "function"
    },
    {
      "inputs": [
        {
          "internalType": "uint256",
          "name": "_eventID",
          "type": "uint256"
        }
      ],
      "name": "purchaseTicket",
      "outputs": [
        {
          "internalType": "uint256",
          "name": "",
          "type": "uint256"
        }
      ],
      "stateMutability": "payable",
      "type": "function"
    },
    {
      "inputs": [],
      "name": "getAllEventIds",
      "outputs": [
        {
          "internalType": "uint256[]",
          "name": "",
          "type": "uint256[]"
        }
      ],
      "stateMutability": "view",
      "type": "function"
    },
    {
      "inputs": [
        {
          "internalType": "address",
          "name": "attendee",
          "type": "address"
        }
      ],
      "name": "getTickets",
      "outputs": [
        {
          "internalType": "uint256[]",
          "name": "",
          "type": "uint256[]"
        }
      ],
      "stateMutability": "view",
      "type": "function"
    }
  ],
  "bytecode": "0x60806040526000600255600060035534801561001a57600080fd5b5061003761002c61009160201b60201c565b61009960201b60201c565b739326bfa02add2366b30bacb125260af641031331600160006101000a81548173ffffffffffffffffffffffffffffffffffffffff021916908373ffffffffffffffffffffffffffffffffffffffff16021790555061015d565b600033905090565b60008060009054906101000a900473ffffffffffffffffffffffffffffffffffffffff169050816000806101000a81548173ffffffffffffffffffffffffffffffffffffffff021916908373ffffffffffffffffffffffffffffffffffffffff1602179055508173ffffffffffffffffffffffffffffffffffffffff168173ffffffffffffffffffffffffffffffffffffffff167f8be0079c531659141344cd1fd0a4f28419497f9722a3daafe3b4186f6b6457e060405160405180910390a35050565b611c4e8061016c6000396000f3fe6080604052600436106100c25760003560e01c80638da5cb5b1161007f578063aceb6cc611610059578063aceb6cc614610296578063b948348c146102d3578063cfbd900f14610303578063f2fde38b1461032e576100c2565b80638da5cb5b146101f1578063998f6ac01461021c5780639e9580f614610259576100c2565b80630ad182bc146100c75780630b7914301461010457806350b4471214610146578063682e54cd14610184578063715018a6146101af57806371be2e4a146101c6575b600080fd5b3480156100d357600080fd5b506100ee60048036038101906100e99190610fe0565b610357565b6040516100fb91906110d5565b60405180910390f35b34801561011057600080fd5b5061012b60048036038101906101269190611123565b6103f1565b60405161013d96959493929190611207565b60405180910390f35b34801561015257600080fd5b5061016d60048036038101906101689190611123565b6104d5565b60405161017b92919061126f565b60405180910390f35b34801561019057600080fd5b506101996104f9565b6040516101a691906110d5565b60405180910390f35b3480156101bb57600080fd5b506101c4610551565b005b3480156101d257600080fd5b506101db6105d9565b6040516101e89190611298565b60405180910390f35b3480156101fd57600080fd5b506102066105df565b60405161021391906112b3565b60405180910390f35b34801561022857600080fd5b50610243600480360381019061023e9190611123565b610608565b6040516102509190611298565b60405180910390f35b34801561026557600080fd5b50610280600480360381019061027b9190611403565b61062c565b60405161028d9190611298565b60405180910390f35b3480156102a257600080fd5b506102bd60048036038101906102b89190611123565b6107e4565b6040516102ca9190611298565b60405180910390f35b6102ed60048036038101906102e89190611123565b610970565b6040516102fa9190611298565b60405180910390f35b34801561030f57600080fd5b50610318610d01565b6040516103259190611298565b60405180910390f35b34801561033a57600080fd5b5061035560048036038101906103509190610fe0565b610d07565b005b6060600660008373ffffffffffffffffffffffffffffffffffffffff1673ffffffffffffffffffffffffffffffffffffffff1681526020019081526020016000206000018054806020026020016040519081016040528092919081815260200182805480156103e557602002820191906000526020600020905b8154815260200190600101908083116103d1575b50505050509050919050565b6004602052806000526040600020600091509050806000018054610414906114a1565b80601f0160208091040260200160405190810160405280929190818152602001828054610440906114a1565b801561048d5780601f106104625761010080835404028352916020019161048d565b820191906000526020600020905b81548152906001019060200180831161047057829003601f168201915b5050505050908060010154908060020160009054906101000a900473ffffffffffffffffffffffffffffffffffffffff16908060030154908060040154908060050154905086565b60076020528060005260406000206000915090508060000154908060010154905082565b6060600580548060200260200160405190810160405280929190818152602001828054801561054757602002820191906000526020600020905b815481526020019060010190808311610533575b5050505050905090565b610559610dff565b73ffffffffffffffffffffffffffffffffffffffff166105776105df565b73ffffffffffffffffffffffffffffffffffffffff16146105cd576040517f08c379a00000000000000000000000000000000000000000000000000000000081526004016105c49061151f565b60405180910390fd5b6105d76000610e07565b565b60025481565b60008060009054906101000a900473ffffffffffffffffffffffffffffffffffffffff16905090565b6005818154811061061857600080fd5b906000526020600020016000915090505481565b6000610636610dff565b73ffffffffffffffffffffffffffffffffffffffff166106546105df565b73ffffffffffffffffffffffffffffffffffffffff16146106aa576040517f08c379a00000000000000000000000000000000000000000000000000000000081526004016106a19061151f565b60405180910390fd5b6000600254905060006040518060c001604052808781526020018381526020013373ffffffffffffffffffffffffffffffffffffffff1681526020018681526020018581526020016000815250905080600460008481526020019081526020016000206000820151816000019080519060200190610729929190610ecb565b506020820151816001015560408201518160020160006101000a81548173ffffffffffffffffffffffffffffffffffffffff021916908373ffffffffffffffffffffffffffffffffffffffff160217905550606082015181600301556080820151816004015560a0820151816005015590505060058290806001815401808255809150506001900390600052602060002001600090919091909150556001826107d2919061156e565b60028190555081925050509392505050565b600080600160009054906101000a900473ffffffffffffffffffffffffffffffffffffffff1673ffffffffffffffffffffffffffffffffffffffff1663feaf968c6040518163ffffffff1660e01b815260040160a06040518083038186803b15801561084f57600080fd5b505afa158015610863573d6000803e3d6000fd5b505050506040513d601f19601f820116820180604052508101906108879190611651565b505050915050600081600160009054906101000a900473ffffffffffffffffffffffffffffffffffffffff1673ffffffffffffffffffffffffffffffffffffffff1663313ce5676040518163ffffffff1660e01b815260040160206040518083038186803b1580156108f857600080fd5b505afa15801561090c573d6000803e3d6000fd5b505050506040513d601f19601f820116820180604052508101906109309190611705565b600a61093c9190611865565b670de0b6b3a764000061094f91906118b0565b6109599190611939565b9050808461096791906118b0565b92505050919050565b600081600060046000838152602001908152602001600020600301549050610997816107e4565b3410156109d9576040517f08c379a00000000000000000000000000000000000000000000000000000000081526004016109d0906119dc565b60405180910390fd5b8360006004600083815260200190815260200160002090508060040154816005015410610a3b576040517f08c379a0000000000000000000000000000000000000000000000000000000008152600401610a3290611a48565b60405180910390fd5b853360001515600660008373ffffffffffffffffffffffffffffffffffffffff1673ffffffffffffffffffffffffffffffffffffffff168152602001908152602001600020600201600084815260200190815260200160002060009054906101000a900460ff16151514610ae4576040517f08c379a0000000000000000000000000000000000000000000000000000000008152600401610adb90611ab4565b60405180910390fd5b6000600460008a81526020019081526020016000209050600060035490506001600354610b11919061156e565b60038190555060018260050154610b28919061156e565b82600501819055506000600660003373ffffffffffffffffffffffffffffffffffffffff1673ffffffffffffffffffffffffffffffffffffffff16815260200190815260200160002090508060000182908060018154018082558091505060019003906000526020600020016000909190919091505560018160020160008d815260200190815260200160002060006101000a81548160ff02191690831515021790555060405180604001604052808381526020018c8152508160010160008d815260200190815260200160002060008201518160000155602082015181600101559050506000610c1c84600301546107e4565b905060008460020160009054906101000a900473ffffffffffffffffffffffffffffffffffffffff1673ffffffffffffffffffffffffffffffffffffffff1682604051610c6890611b05565b60006040518083038185875af1925050503d8060008114610ca5576040519150601f19603f3d011682016040523d82523d6000602084013e610caa565b606091505b5050905080610cee576040517f08c379a0000000000000000000000000000000000000000000000000000000008152600401610ce590611b66565b60405180910390fd5b839b505050505050505050505050919050565b60035481565b610d0f610dff565b73ffffffffffffffffffffffffffffffffffffffff16610d2d6105df565b73ffffffffffffffffffffffffffffffffffffffff1614610d83576040517f08c379a0000000000000000000000000000000000000000000000000000000008152600401610d7a9061151f565b60405180910390fd5b600073ffffffffffffffffffffffffffffffffffffffff168173ffffffffffffffffffffffffffffffffffffffff161415610df3576040517f08c379a0000000000000000000000000000000000000000000000000000000008152600401610dea90611bf8565b60405180910390fd5b610dfc81610e07565b50565b600033905090565b60008060009054906101000a900473ffffffffffffffffffffffffffffffffffffffff169050816000806101000a81548173ffffffffffffffffffffffffffffffffffffffff021916908373ffffffffffffffffffffffffffffffffffffffff1602179055508173ffffffffffffffffffffffffffffffffffffffff168173ffffffffffffffffffffffffffffffffffffffff167f8be0079c531659141344cd1fd0a4f28419497f9722a3daafe3b4186f6b6457e060405160405180910390a35050565b828054610ed7906114a1565b90600052602060002090601f016020900481019282610ef95760008555610f40565b82601f10610f1257805160ff1916838001178555610f40565b82800160010185558215610f40579182015b82811115610f3f578251825591602001919060010190610f24565b5b509050610f4d9190610f51565b5090565b5b80821115610f6a576000816000905550600101610f52565b5090565b6000604051905090565b600080fd5b600080fd5b600073ffffffffffffffffffffffffffffffffffffffff82169050919050565b6000610fad82610f82565b9050919050565b610fbd81610fa2565b8114610fc857600080fd5b50565b600081359050610fda81610fb4565b92915050565b600060208284031215610ff657610ff5610f78565b5b600061100484828501610fcb565b91505092915050565b600081519050919050565b600082825260208201905092915050565b6000819050602082019050919050565b6000819050919050565b61104c81611039565b82525050565b600061105e8383611043565b60208301905092915050565b6000602082019050919050565b60006110828261100d565b61108c8185611018565b935061109783611029565b8060005b838110156110c85781516110af8882611052565b97506110ba8361106a565b92505060018101905061109b565b5085935050505092915050565b600060208201905081810360008301526110ef8184611077565b905092915050565b61110081611039565b811461110b57600080fd5b50565b60008135905061111d816110f7565b92915050565b60006020828403121561113957611138610f78565b5b60006111478482850161110e565b91505092915050565b600081519050919050565b600082825260208201905092915050565b60005b8381101561118a57808201518184015260208101905061116f565b83811115611199576000848401525b50505050565b6000601f19601f8301169050919050565b60006111bb82611150565b6111c5818561115b565b93506111d581856020860161116c565b6111de8161119f565b840191505092915050565b6111f281611039565b82525050565b61120181610fa2565b82525050565b600060c082019050818103600083015261122181896111b0565b905061123060208301886111e9565b61123d60408301876111f8565b61124a60608301866111e9565b61125760808301856111e9565b61126460a08301846111e9565b979650505050505050565b600060408201905061128460008301856111e9565b61129160208301846111e9565b9392505050565b60006020820190506112ad60008301846111e9565b92915050565b60006020820190506112c860008301846111f8565b92915050565b600080fd5b600080fd5b7f4e487b7100000000000000000000000000000000000000000000000000000000600052604160045260246000fd5b6113108261119f565b810181811067ffffffffffffffff8211171561132f5761132e6112d8565b5b80604052505050565b6000611342610f6e565b905061134e8282611307565b919050565b600067ffffffffffffffff82111561136e5761136d6112d8565b5b6113778261119f565b9050602081019050919050565b82818337600083830152505050565b60006113a66113a184611353565b611338565b9050828152602081018484840111156113c2576113c16112d3565b5b6113cd848285611384565b509392505050565b600082601f8301126113ea576113e96112ce565b5b81356113fa848260208601611393565b91505092915050565b60008060006060848603121561141c5761141b610f78565b5b600084013567ffffffffffffffff81111561143a57611439610f7d565b5b611446868287016113d5565b93505060206114578682870161110e565b92505060406114688682870161110e565b9150509250925092565b7f4e487b7100000000000000000000000000000000000000000000000000000000600052602260045260246000fd5b600060028204905060018216806114b957607f821691505b602082108114156114cd576114cc611472565b5b50919050565b7f4f776e61626c653a2063616c6c6572206973206e6f7420746865206f776e6572600082015250565b600061150960208361115b565b9150611514826114d3565b602082019050919050565b60006020820190508181036000830152611538816114fc565b9050919050565b7f4e487b7100000000000000000000000000000000000000000000000000000000600052601160045260246000fd5b600061157982611039565b915061158483611039565b9250827fffffffffffffffffffffffffffffffffffffffffffffffffffffffffffffffff038211156115b9576115b861153f565b5b828201905092915050565b600069ffffffffffffffffffff82169050919050565b6115e3816115c4565b81146115ee57600080fd5b50565b600081519050611600816115da565b92915050565b6000819050919050565b61161981611606565b811461162457600080fd5b50565b60008151905061163681611610565b92915050565b60008151905061164b816110f7565b92915050565b600080600080600060a0868803121561166d5761166c610f78565b5b600061167b888289016115f1565b955050602061168c88828901611627565b945050604061169d8882890161163c565b93505060606116ae8882890161163c565b92505060806116bf888289016115f1565b9150509295509295909350565b600060ff82169050919050565b6116e2816116cc565b81146116ed57600080fd5b50565b6000815190506116ff816116d9565b92915050565b60006020828403121561171b5761171a610f78565b5b6000611729848285016116f0565b91505092915050565b60008160011c9050919050565b6000808291508390505b6001851115611789578086048111156117655761176461153f565b5b60018516156117745780820291505b808102905061178285611732565b9450611749565b94509492505050565b6000826117a2576001905061185e565b816117b0576000905061185e565b81600181146117c657600281146117d0576117ff565b600191505061185e565b60ff8411156117e2576117e161153f565b5b8360020a9150848211156117f9576117f861153f565b5b5061185e565b5060208310610133831016604e8410600b84101617156118345782820a90508381111561182f5761182e61153f565b5b61185e565b611841848484600161173f565b925090508184048111156118585761185761153f565b5b81810290505b9392505050565b600061187082611039565b915061187b836116cc565b92506118a87fffffffffffffffffffffffffffffffffffffffffffffffffffffffffffffffff8484611792565b905092915050565b60006118bb82611039565b91506118c683611039565b9250817fffffffffffffffffffffffffffffffffffffffffffffffffffffffffffffffff04831182151516156118ff576118fe61153f565b5b828202905092915050565b7f4e487b7100000000000000000000000000000000000000000000000000000000600052601260045260246000fd5b600061194482611039565b915061194f83611039565b92508261195f5761195e61190a565b5b828204905092915050565b7f46756e64732073656e74206d75737420636f766572207072696365206f66207460008201527f69636b6574210000000000000000000000000000000000000000000000000000602082015250565b60006119c660268361115b565b91506119d18261196a565b604082019050919050565b600060208201905081810360008301526119f5816119b9565b9050919050565b7f4e6f2072656d61696e696e67207469636b657473210000000000000000000000600082015250565b6000611a3260158361115b565b9150611a3d826119fc565b602082019050919050565b60006020820190508181036000830152611a6181611a25565b9050919050565b7f5573657220616c7265616479206f776e732061207469636b6574210000000000600082015250565b6000611a9e601b8361115b565b9150611aa982611a68565b602082019050919050565b60006020820190508181036000830152611acd81611a91565b9050919050565b600081905092915050565b50565b6000611aef600083611ad4565b9150611afa82611adf565b600082019050919050565b6000611b1082611ae2565b9150819050919050565b7f5472616e73666572206661696c65642e00000000000000000000000000000000600082015250565b6000611b5060108361115b565b9150611b5b82611b1a565b602082019050919050565b60006020820190508181036000830152611b7f81611b43565b9050919050565b7f4f776e61626c653a206e6577206f776e657220697320746865207a65726f206160008201527f6464726573730000000000000000000000000000000000000000000000000000602082015250565b6000611be260268361115b565b9150611bed82611b86565b604082019050919050565b60006020820190508181036000830152611c1181611bd5565b905091905056fea264697066735822122058632f12e7fe6a387053ea34bdc4f6539a5d6f806eeb30ecb0611cc4432a5be864736f6c63430008090033",
  "immutableReferences": {},
  "source": "// SPDX-License-Identifier: MIT\npragma solidity >=0.8.2 < 0.9.0;\n\nimport \"@chainlink/contracts/src/v0.8/interfaces/AggregatorV3Interface.sol\";\nimport \"@openzeppelin/contracts/access/Ownable.sol\";\n\n/// @title An event ticketing contract\n/// @author Kevin Lu\n/// @notice This contract implements the most basic event ticketing requirements of event creation and ticket purchasing\ncontract Ticketing is Ownable {\n\n  AggregatorV3Interface internal priceFeed;\n\n  /// @notice Stores the number of created events (which also is the event id for now)\n  uint public eventCount = 0;\n  /// @notice Stores the number of purchased tickets (which also is the ticket id for now)\n  uint public ticketCount = 0;\n  /// @notice Stores a mapping of event id to Event struct\n  mapping(uint => Event) public events;\n  /// @notice Stores an array of created event ids\n  uint[] public eventIds;\n  /// @notice Stores a mapping of attendee address to Attendee struct\n  mapping(address => Attendee) attendees;\n  /// @notice Stores a mapping of ticket id to Ticket struct\n  mapping(uint => Ticket) public tickets;\n\n  struct Event {\n    string name;\n    uint id;\n    address organizer;\n    uint pricePerTicketInUsd;\n    uint maxTickets;\n    uint ticketCount;\n  }\n\n  struct Ticket {\n    uint ticketId;\n    uint eventId;\n  }\n\n  struct Attendee {\n    uint[] ticketIds;\n    mapping(uint => Ticket) tickets;  // ticket id to Ticket struct\n    mapping(uint => bool) events;  // event id to bool (true if has ticket for event)\n  }\n\n  constructor() {\n    priceFeed = AggregatorV3Interface(0x9326BFA02ADD2366b30bacB125260Af641031331);\n  }\n\n  modifier paidEnough(uint _eventID) {\n    uint pricePerTicketInUsd = events[_eventID].pricePerTicketInUsd;\n    require(msg.value >= getPriceInWei(pricePerTicketInUsd), \"Funds sent must cover price of ticket!\");\n    _;\n  }\n\n  modifier hasRemainingTickets(uint _eventID) {\n    Event storage eventStruct = events[_eventID];\n    require(eventStruct.ticketCount < eventStruct.maxTickets, \"No remaining tickets!\");\n    _;\n  }\n\n  modifier doesNotAlreadyOwn(uint _eventID, address _purchaser) {\n    require(attendees[_purchaser].events[_eventID] == false, \"User already owns a ticket!\");\n    _;\n  }\n\n  /// @notice Calculate USD ticket price in wei\n  /// @param _priceInUsd The price of a ticket in USD\n  /// @return Ticket price in wei\n  function getPriceInWei(uint _priceInUsd) public view virtual returns (uint) {\n    (,int price,,,) = priceFeed.latestRoundData();\n    uint usdToWei = (10**18)*(10**priceFeed.decimals())/uint(price);\n    return _priceInUsd * usdToWei;\n  }\n\n  /// @notice Create an event with provided parameters\n  /// @param _name Name of event\n  /// @param _pricePerTicketInUsd The price of a ticket in USD\n  /// @param _maxTickets Max tickets to sell\n  /// @return Created event id\n  function createEvent(string memory _name, uint _pricePerTicketInUsd, uint _maxTickets) public onlyOwner() returns (uint) {\n    // registers a new event and returns the newly created event id\n    uint eventId = eventCount;\n\n    Event memory eventStruct = Event({\n      name: _name,\n      id: eventId,\n      organizer: msg.sender,\n      pricePerTicketInUsd: _pricePerTicketInUsd,\n      maxTickets: _maxTickets,\n      ticketCount: 0\n    });\n\n    events[eventId] = eventStruct;\n    eventIds.push(eventId);\n\n    eventCount = eventId + 1;\n\n    return eventId;\n  }\n\n  /// @notice Purchase a ticket for the given event id\n  /// @param _eventID Event id to purchase ticket from\n  /// @return Purchased ticket id\n  function purchaseTicket(uint _eventID) public payable paidEnough(_eventID) hasRemainingTickets(_eventID) doesNotAlreadyOwn(_eventID, msg.sender) returns (uint) {\n    // purchase a ticket from the provided event\n    Event storage eventStruct = events[_eventID];\n    uint ticketId = ticketCount;\n    ticketCount = ticketCount + 1;\n    eventStruct.ticketCount = eventStruct.ticketCount  + 1;\n\n    Attendee storage attendee = attendees[msg.sender];\n    attendee.ticketIds.push(ticketId);\n    attendee.events[_eventID] = true;\n    attendee.tickets[_eventID] = Ticket({\n      ticketId: ticketId,\n      eventId: _eventID\n    });\n\n    uint priceInWei = getPriceInWei(eventStruct.pricePerTicketInUsd);\n\n    // payable(eventStruct.organizer).transfer(priceInWei);\n    (bool success, ) = eventStruct.organizer.call{value: priceInWei}('');\n    require(success, \"Transfer failed.\");\n\n    return ticketId;\n  }\n\n  /// @notice Get all event ids\n  /// @return Event ids\n  function getAllEventIds() public view returns (uint[] memory) {\n    return eventIds;\n  }\n\n  /// @notice Get ticket ids for a given attendee\n  /// @param attendee Attendee address\n  /// @return Ticket ids owned by the attendee address\n  function getTickets(address attendee) public view returns (uint[] memory) {\n    return attendees[attendee].ticketIds;\n  }\n}\n",
  "sourcePath": "/Users/kevin/consensys/blockchain-developer-bootcamp-final-project/web3/contracts/Ticketing.sol",
  "compiler": {
    "name": "solc",
    "version": "0.8.9+commit.e5eed63a.Emscripten.clang"
  },
  "schemaVersion": "3.4.3",
  "updatedAt": "2021-11-29T19:36:33.232Z",
  "devdoc": {
    "author": "Kevin Lu",
    "kind": "dev",
    "methods": {
      "createEvent(string,uint256,uint256)": {
        "params": {
          "_maxTickets": "Max tickets to sell",
          "_name": "Name of event",
          "_pricePerTicketInUsd": "The price of a ticket in USD"
        },
        "returns": {
          "_0": "Created event id"
        }
      },
      "getAllEventIds()": {
        "returns": {
          "_0": "Event ids"
        }
      },
      "getPriceInWei(uint256)": {
        "params": {
          "_priceInUsd": "The price of a ticket in USD"
        },
        "returns": {
          "_0": "Ticket price in wei"
        }
      },
      "getTickets(address)": {
        "params": {
          "attendee": "Attendee address"
        },
        "returns": {
          "_0": "Ticket ids owned by the attendee address"
        }
      },
      "owner()": {
        "details": "Returns the address of the current owner."
      },
      "purchaseTicket(uint256)": {
        "params": {
          "_eventID": "Event id to purchase ticket from"
        },
        "returns": {
          "_0": "Purchased ticket id"
        }
      },
      "renounceOwnership()": {
        "details": "Leaves the contract without owner. It will not be possible to call `onlyOwner` functions anymore. Can only be called by the current owner. NOTE: Renouncing ownership will leave the contract without an owner, thereby removing any functionality that is only available to the owner."
      },
      "transferOwnership(address)": {
        "details": "Transfers ownership of the contract to a new account (`newOwner`). Can only be called by the current owner."
      }
    },
    "title": "An event ticketing contract",
    "version": 1
  },
  "userdoc": {
    "kind": "user",
    "methods": {
      "createEvent(string,uint256,uint256)": {
        "notice": "Create an event with provided parameters"
      },
      "eventCount()": {
        "notice": "Stores the number of created events (which also is the event id for now)"
      },
      "eventIds(uint256)": {
        "notice": "Stores an array of created event ids"
      },
      "events(uint256)": {
        "notice": "Stores a mapping of event id to Event struct"
      },
      "getAllEventIds()": {
        "notice": "Get all event ids"
      },
      "getPriceInWei(uint256)": {
        "notice": "Calculate USD ticket price in wei"
      },
      "getTickets(address)": {
        "notice": "Get ticket ids for a given attendee"
      },
      "purchaseTicket(uint256)": {
        "notice": "Purchase a ticket for the given event id"
      },
      "ticketCount()": {
        "notice": "Stores the number of purchased tickets (which also is the ticket id for now)"
      },
      "tickets(uint256)": {
        "notice": "Stores a mapping of ticket id to Ticket struct"
      }
    },
    "notice": "This contract implements the most basic event ticketing requirements of event creation and ticket purchasing",
    "version": 1
  }
}