{
  "contractName": "Ticketing",
  "abi": [
    {
      "inputs": [],
      "stateMutability": "nonpayable",
      "type": "constructor"
    },
    {
      "inputs": [],
      "name": "eventCount",
      "outputs": [
        {
          "internalType": "uint256",
          "name": "",
          "type": "uint256"
        }
      ],
      "stateMutability": "view",
      "type": "function"
    },
    {
      "inputs": [
        {
          "internalType": "uint256",
          "name": "",
          "type": "uint256"
        }
      ],
      "name": "eventIds",
      "outputs": [
        {
          "internalType": "uint256",
          "name": "",
          "type": "uint256"
        }
      ],
      "stateMutability": "view",
      "type": "function"
    },
    {
      "inputs": [
        {
          "internalType": "uint256",
          "name": "",
          "type": "uint256"
        }
      ],
      "name": "events",
      "outputs": [
        {
          "internalType": "string",
          "name": "name",
          "type": "string"
        },
        {
          "internalType": "uint256",
          "name": "id",
          "type": "uint256"
        },
        {
          "internalType": "address",
          "name": "organizer",
          "type": "address"
        },
        {
          "internalType": "uint256",
          "name": "pricePerTicketInUsd",
          "type": "uint256"
        },
        {
          "internalType": "uint256",
          "name": "maxTickets",
          "type": "uint256"
        },
        {
          "internalType": "uint256",
          "name": "ticketCount",
          "type": "uint256"
        }
      ],
      "stateMutability": "view",
      "type": "function"
    },
    {
      "inputs": [],
      "name": "ticketCount",
      "outputs": [
        {
          "internalType": "uint256",
          "name": "",
          "type": "uint256"
        }
      ],
      "stateMutability": "view",
      "type": "function"
    },
    {
      "inputs": [
        {
          "internalType": "uint256",
          "name": "",
          "type": "uint256"
        }
      ],
      "name": "tickets",
      "outputs": [
        {
          "internalType": "uint256",
          "name": "ticketId",
          "type": "uint256"
        },
        {
          "internalType": "uint256",
          "name": "eventId",
          "type": "uint256"
        }
      ],
      "stateMutability": "view",
      "type": "function"
    },
    {
      "inputs": [
        {
          "internalType": "uint256",
          "name": "priceInUsd",
          "type": "uint256"
        }
      ],
      "name": "getPriceInWei",
      "outputs": [
        {
          "internalType": "uint256",
          "name": "",
          "type": "uint256"
        }
      ],
      "stateMutability": "view",
      "type": "function"
    },
    {
      "inputs": [
        {
          "internalType": "string",
          "name": "_name",
          "type": "string"
        },
        {
          "internalType": "uint256",
          "name": "_pricePerTicketInUsd",
          "type": "uint256"
        },
        {
          "internalType": "uint256",
          "name": "_maxTickets",
          "type": "uint256"
        }
      ],
      "name": "createEvent",
      "outputs": [
        {
          "internalType": "uint256",
          "name": "",
          "type": "uint256"
        }
      ],
      "stateMutability": "nonpayable",
      "type": "function"
    },
    {
      "inputs": [
        {
          "internalType": "uint256",
          "name": "_eventID",
          "type": "uint256"
        }
      ],
      "name": "purchaseTicket",
      "outputs": [
        {
          "internalType": "uint256",
          "name": "",
          "type": "uint256"
        }
      ],
      "stateMutability": "payable",
      "type": "function"
    },
    {
      "inputs": [],
      "name": "getAllEventIds",
      "outputs": [
        {
          "internalType": "uint256[]",
          "name": "",
          "type": "uint256[]"
        }
      ],
      "stateMutability": "view",
      "type": "function"
    },
    {
      "inputs": [
        {
          "internalType": "address",
          "name": "attendee",
          "type": "address"
        }
      ],
      "name": "getTickets",
      "outputs": [
        {
          "internalType": "uint256[]",
          "name": "",
          "type": "uint256[]"
        }
      ],
      "stateMutability": "view",
      "type": "function"
    }
  ],
  "bytecode": "0x60806040526000600155600060025534801561001a57600080fd5b50739326bfa02add2366b30bacb125260af6410313316000806101000a81548173ffffffffffffffffffffffffffffffffffffffff021916908373ffffffffffffffffffffffffffffffffffffffff16021790555061168b8061007e6000396000f3fe6080604052600436106100915760003560e01c8063998f6ac011610059578063998f6ac0146101a95780639e9580f6146101e6578063aceb6cc614610223578063b948348c14610260578063cfbd900f1461029057610091565b80630ad182bc146100965780630b791430146100d357806350b4471214610115578063682e54cd1461015357806371be2e4a1461017e575b600080fd5b3480156100a257600080fd5b506100bd60048036038101906100b89190610be8565b6102bb565b6040516100ca9190610cdd565b60405180910390f35b3480156100df57600080fd5b506100fa60048036038101906100f59190610d2b565b610355565b60405161010c96959493929190610e0f565b60405180910390f35b34801561012157600080fd5b5061013c60048036038101906101379190610d2b565b610439565b60405161014a929190610e77565b60405180910390f35b34801561015f57600080fd5b5061016861045d565b6040516101759190610cdd565b60405180910390f35b34801561018a57600080fd5b506101936104b5565b6040516101a09190610ea0565b60405180910390f35b3480156101b557600080fd5b506101d060048036038101906101cb9190610d2b565b6104bb565b6040516101dd9190610ea0565b60405180910390f35b3480156101f257600080fd5b5061020d60048036038101906102089190610ff0565b6104df565b60405161021a9190610ea0565b60405180910390f35b34801561022f57600080fd5b5061024a60048036038101906102459190610d2b565b61061a565b6040516102579190610ea0565b60405180910390f35b61027a60048036038101906102759190610d2b565b6107a2565b6040516102879190610ea0565b60405180910390f35b34801561029c57600080fd5b506102a5610acd565b6040516102b29190610ea0565b60405180910390f35b6060600560008373ffffffffffffffffffffffffffffffffffffffff1673ffffffffffffffffffffffffffffffffffffffff16815260200190815260200160002060000180548060200260200160405190810160405280929190818152602001828054801561034957602002820191906000526020600020905b815481526020019060010190808311610335575b50505050509050919050565b60036020528060005260406000206000915090508060000180546103789061108e565b80601f01602080910402602001604051908101604052809291908181526020018280546103a49061108e565b80156103f15780601f106103c6576101008083540402835291602001916103f1565b820191906000526020600020905b8154815290600101906020018083116103d457829003601f168201915b5050505050908060010154908060020160009054906101000a900473ffffffffffffffffffffffffffffffffffffffff16908060030154908060040154908060050154905086565b60066020528060005260406000206000915090508060000154908060010154905082565b606060048054806020026020016040519081016040528092919081815260200182805480156104ab57602002820191906000526020600020905b815481526020019060010190808311610497575b5050505050905090565b60015481565b600481815481106104cb57600080fd5b906000526020600020016000915090505481565b600080600154905060006040518060c001604052808781526020018381526020013373ffffffffffffffffffffffffffffffffffffffff168152602001868152602001858152602001600081525090508060036000848152602001908152602001600020600082015181600001908051906020019061055f929190610ad3565b506020820151816001015560408201518160020160006101000a81548173ffffffffffffffffffffffffffffffffffffffff021916908373ffffffffffffffffffffffffffffffffffffffff160217905550606082015181600301556080820151816004015560a08201518160050155905050600482908060018154018082558091505060019003906000526020600020016000909190919091505560018261060891906110ef565b60018190555081925050509392505050565b60008060008054906101000a900473ffffffffffffffffffffffffffffffffffffffff1673ffffffffffffffffffffffffffffffffffffffff1663feaf968c6040518163ffffffff1660e01b815260040160a06040518083038186803b15801561068357600080fd5b505afa158015610697573d6000803e3d6000fd5b505050506040513d601f19601f820116820180604052508101906106bb91906111d2565b50505091505060008160008054906101000a900473ffffffffffffffffffffffffffffffffffffffff1673ffffffffffffffffffffffffffffffffffffffff1663313ce5676040518163ffffffff1660e01b815260040160206040518083038186803b15801561072a57600080fd5b505afa15801561073e573d6000803e3d6000fd5b505050506040513d601f19601f820116820180604052508101906107629190611286565b600a61076e91906113e6565b670de0b6b3a76400006107819190611431565b61078b91906114ba565b905080846107999190611431565b92505050919050565b6000816000600360008381526020019081526020016000206003015490506107c98161061a565b34101561080b576040517f08c379a00000000000000000000000000000000000000000000000000000000081526004016108029061155d565b60405180910390fd5b836000600360008381526020019081526020016000209050806004015481600501541061086d576040517f08c379a0000000000000000000000000000000000000000000000000000000008152600401610864906115c9565b60405180910390fd5b853360001515600560008373ffffffffffffffffffffffffffffffffffffffff1673ffffffffffffffffffffffffffffffffffffffff168152602001908152602001600020600201600084815260200190815260200160002060009054906101000a900460ff16151514610916576040517f08c379a000000000000000000000000000000000000000000000000000000000815260040161090d90611635565b60405180910390fd5b6000600360008a8152602001908152602001600020905060006002549050600160025461094391906110ef565b6002819055506001826005015461095a91906110ef565b82600501819055506000600560003373ffffffffffffffffffffffffffffffffffffffff1673ffffffffffffffffffffffffffffffffffffffff16815260200190815260200160002090508060000182908060018154018082558091505060019003906000526020600020016000909190919091505560018160020160008d815260200190815260200160002060006101000a81548160ff02191690831515021790555060405180604001604052808381526020018c8152508160010160008d815260200190815260200160002060008201518160000155602082015181600101559050506000610a4e846003015461061a565b90508360020160009054906101000a900473ffffffffffffffffffffffffffffffffffffffff1673ffffffffffffffffffffffffffffffffffffffff166108fc829081150290604051600060405180830381858888f19350505050158015610aba573d6000803e3d6000fd5b50829a5050505050505050505050919050565b60025481565b828054610adf9061108e565b90600052602060002090601f016020900481019282610b015760008555610b48565b82601f10610b1a57805160ff1916838001178555610b48565b82800160010185558215610b48579182015b82811115610b47578251825591602001919060010190610b2c565b5b509050610b559190610b59565b5090565b5b80821115610b72576000816000905550600101610b5a565b5090565b6000604051905090565b600080fd5b600080fd5b600073ffffffffffffffffffffffffffffffffffffffff82169050919050565b6000610bb582610b8a565b9050919050565b610bc581610baa565b8114610bd057600080fd5b50565b600081359050610be281610bbc565b92915050565b600060208284031215610bfe57610bfd610b80565b5b6000610c0c84828501610bd3565b91505092915050565b600081519050919050565b600082825260208201905092915050565b6000819050602082019050919050565b6000819050919050565b610c5481610c41565b82525050565b6000610c668383610c4b565b60208301905092915050565b6000602082019050919050565b6000610c8a82610c15565b610c948185610c20565b9350610c9f83610c31565b8060005b83811015610cd0578151610cb78882610c5a565b9750610cc283610c72565b925050600181019050610ca3565b5085935050505092915050565b60006020820190508181036000830152610cf78184610c7f565b905092915050565b610d0881610c41565b8114610d1357600080fd5b50565b600081359050610d2581610cff565b92915050565b600060208284031215610d4157610d40610b80565b5b6000610d4f84828501610d16565b91505092915050565b600081519050919050565b600082825260208201905092915050565b60005b83811015610d92578082015181840152602081019050610d77565b83811115610da1576000848401525b50505050565b6000601f19601f8301169050919050565b6000610dc382610d58565b610dcd8185610d63565b9350610ddd818560208601610d74565b610de681610da7565b840191505092915050565b610dfa81610c41565b82525050565b610e0981610baa565b82525050565b600060c0820190508181036000830152610e298189610db8565b9050610e386020830188610df1565b610e456040830187610e00565b610e526060830186610df1565b610e5f6080830185610df1565b610e6c60a0830184610df1565b979650505050505050565b6000604082019050610e8c6000830185610df1565b610e996020830184610df1565b9392505050565b6000602082019050610eb56000830184610df1565b92915050565b600080fd5b600080fd5b7f4e487b7100000000000000000000000000000000000000000000000000000000600052604160045260246000fd5b610efd82610da7565b810181811067ffffffffffffffff82111715610f1c57610f1b610ec5565b5b80604052505050565b6000610f2f610b76565b9050610f3b8282610ef4565b919050565b600067ffffffffffffffff821115610f5b57610f5a610ec5565b5b610f6482610da7565b9050602081019050919050565b82818337600083830152505050565b6000610f93610f8e84610f40565b610f25565b905082815260208101848484011115610faf57610fae610ec0565b5b610fba848285610f71565b509392505050565b600082601f830112610fd757610fd6610ebb565b5b8135610fe7848260208601610f80565b91505092915050565b60008060006060848603121561100957611008610b80565b5b600084013567ffffffffffffffff81111561102757611026610b85565b5b61103386828701610fc2565b935050602061104486828701610d16565b925050604061105586828701610d16565b9150509250925092565b7f4e487b7100000000000000000000000000000000000000000000000000000000600052602260045260246000fd5b600060028204905060018216806110a657607f821691505b602082108114156110ba576110b961105f565b5b50919050565b7f4e487b7100000000000000000000000000000000000000000000000000000000600052601160045260246000fd5b60006110fa82610c41565b915061110583610c41565b9250827fffffffffffffffffffffffffffffffffffffffffffffffffffffffffffffffff0382111561113a576111396110c0565b5b828201905092915050565b600069ffffffffffffffffffff82169050919050565b61116481611145565b811461116f57600080fd5b50565b6000815190506111818161115b565b92915050565b6000819050919050565b61119a81611187565b81146111a557600080fd5b50565b6000815190506111b781611191565b92915050565b6000815190506111cc81610cff565b92915050565b600080600080600060a086880312156111ee576111ed610b80565b5b60006111fc88828901611172565b955050602061120d888289016111a8565b945050604061121e888289016111bd565b935050606061122f888289016111bd565b925050608061124088828901611172565b9150509295509295909350565b600060ff82169050919050565b6112638161124d565b811461126e57600080fd5b50565b6000815190506112808161125a565b92915050565b60006020828403121561129c5761129b610b80565b5b60006112aa84828501611271565b91505092915050565b60008160011c9050919050565b6000808291508390505b600185111561130a578086048111156112e6576112e56110c0565b5b60018516156112f55780820291505b8081029050611303856112b3565b94506112ca565b94509492505050565b60008261132357600190506113df565b8161133157600090506113df565b8160018114611347576002811461135157611380565b60019150506113df565b60ff841115611363576113626110c0565b5b8360020a91508482111561137a576113796110c0565b5b506113df565b5060208310610133831016604e8410600b84101617156113b55782820a9050838111156113b0576113af6110c0565b5b6113df565b6113c284848460016112c0565b925090508184048111156113d9576113d86110c0565b5b81810290505b9392505050565b60006113f182610c41565b91506113fc8361124d565b92506114297fffffffffffffffffffffffffffffffffffffffffffffffffffffffffffffffff8484611313565b905092915050565b600061143c82610c41565b915061144783610c41565b9250817fffffffffffffffffffffffffffffffffffffffffffffffffffffffffffffffff04831182151516156114805761147f6110c0565b5b828202905092915050565b7f4e487b7100000000000000000000000000000000000000000000000000000000600052601260045260246000fd5b60006114c582610c41565b91506114d083610c41565b9250826114e0576114df61148b565b5b828204905092915050565b7f46756e64732073656e74206d75737420636f766572207072696365206f66207460008201527f69636b6574210000000000000000000000000000000000000000000000000000602082015250565b6000611547602683610d63565b9150611552826114eb565b604082019050919050565b600060208201905081810360008301526115768161153a565b9050919050565b7f4e6f2072656d61696e696e67207469636b657473210000000000000000000000600082015250565b60006115b3601583610d63565b91506115be8261157d565b602082019050919050565b600060208201905081810360008301526115e2816115a6565b9050919050565b7f5573657220616c7265616479206f776e732061207469636b6574210000000000600082015250565b600061161f601b83610d63565b915061162a826115e9565b602082019050919050565b6000602082019050818103600083015261164e81611612565b905091905056fea26469706673582212206475e9bd6a878d8b82d12524b1fcc807dabce9f805f60b81885b6dbe4558f94564736f6c63430008090033",
  "immutableReferences": {},
  "source": "// SPDX-License-Identifier: MIT\npragma solidity >=0.8.2 < 0.9.0;\n\nimport \"@chainlink/contracts/src/v0.8/interfaces/AggregatorV3Interface.sol\";\n\ncontract Ticketing {\n\n  AggregatorV3Interface internal priceFeed;\n\n  uint public eventCount = 0;\n  uint public ticketCount = 0;\n\n  mapping(uint => Event) public events;  // event id to Event struct\n  uint[] public eventIds;\n\n  mapping(address => Attendee) attendees;  // attendee address to Attendee struct\n  mapping(uint => Ticket) public tickets;  // ticket id to Ticket struct\n  \n\n  struct Event {\n    string name;\n    uint id;\n    address organizer;\n    uint pricePerTicketInUsd;\n    uint maxTickets;\n    uint ticketCount;\n  }\n\n  struct Ticket {\n    uint ticketId;\n    uint eventId;\n  }\n\n  struct Attendee {\n    uint[] ticketIds;\n    mapping(uint => Ticket) tickets;  // ticket id to Ticket struct\n    mapping(uint => bool) events;  // event id to bool (true if has ticket for event)\n  }\n\n  constructor() {\n    priceFeed = AggregatorV3Interface(0x9326BFA02ADD2366b30bacB125260Af641031331);\n  }\n\n  modifier paidEnough(uint _eventID) {\n    uint pricePerTicketInUsd = events[_eventID].pricePerTicketInUsd;\n    require(msg.value >= getPriceInWei(pricePerTicketInUsd), \"Funds sent must cover price of ticket!\");\n    _;\n  }\n\n  modifier hasRemainingTickets(uint _eventID) {\n    Event storage eventStruct = events[_eventID];\n    require(eventStruct.ticketCount < eventStruct.maxTickets, \"No remaining tickets!\");\n    _;\n  }\n\n  modifier doesNotAlreadyOwn(uint _eventID, address _purchaser) {\n    require(attendees[_purchaser].events[_eventID] == false, \"User already owns a ticket!\");\n    _;\n  }\n\n  /**\n    * Returns the latest price\n    */\n  function getPriceInWei(uint priceInUsd) public view returns (uint) {\n    (,int price,,,) = priceFeed.latestRoundData();\n    uint usdToWei = (10**18)*(10**priceFeed.decimals())/uint(price);\n    return priceInUsd * usdToWei;\n  }\n\n  function createEvent(string memory _name, uint _pricePerTicketInUsd, uint _maxTickets) public returns (uint) {\n    // registers a new event and returns the newly created event id\n    uint eventId = eventCount;\n\n    Event memory eventStruct = Event({\n      name: _name,\n      id: eventId,\n      organizer: msg.sender,\n      pricePerTicketInUsd: _pricePerTicketInUsd,\n      maxTickets: _maxTickets,\n      ticketCount: 0\n    });\n\n    events[eventId] = eventStruct;\n    eventIds.push(eventId);\n\n    eventCount = eventId + 1;\n\n    return eventId;\n  }\n\n  function purchaseTicket(uint _eventID) public payable paidEnough(_eventID) hasRemainingTickets(_eventID) doesNotAlreadyOwn(_eventID, msg.sender) returns (uint) {\n    // purchase a ticket from the provided event\n    Event storage eventStruct = events[_eventID];\n    uint ticketId = ticketCount;\n    ticketCount = ticketCount + 1;\n    eventStruct.ticketCount = eventStruct.ticketCount  + 1;\n\n    Attendee storage attendee = attendees[msg.sender];\n    attendee.ticketIds.push(ticketId);\n    attendee.events[_eventID] = true;\n    attendee.tickets[_eventID] = Ticket({\n      ticketId: ticketId,\n      eventId: _eventID\n    });\n\n    uint priceInWei = getPriceInWei(eventStruct.pricePerTicketInUsd);\n\n    payable(eventStruct.organizer).transfer(priceInWei);\n\n    return ticketId;\n  }\n\n  function getAllEventIds() public view returns (uint[] memory) {\n    return eventIds;\n  }\n\n  function getTickets(address attendee) public view returns (uint[] memory) {\n    return attendees[attendee].ticketIds;\n  }\n}\n",
  "sourcePath": "/Users/kevin/consensys/blockchain-developer-bootcamp-final-project/web3/contracts/Ticketing.sol",
  "compiler": {
    "name": "solc",
    "version": "0.8.9+commit.e5eed63a.Emscripten.clang"
  },
  "schemaVersion": "3.4.3",
  "updatedAt": "2021-11-27T07:30:15.586Z",
  "devdoc": {
    "kind": "dev",
    "methods": {},
    "version": 1
  },
  "userdoc": {
    "kind": "user",
    "methods": {
      "getPriceInWei(uint256)": {
        "notice": "Returns the latest price"
      }
    },
    "version": 1
  }
}