{
  "contractName": "Ticketing",
  "abi": [
    {
      "inputs": [],
      "stateMutability": "nonpayable",
      "type": "constructor"
    },
    {
      "inputs": [],
      "name": "eventCount",
      "outputs": [
        {
          "internalType": "uint256",
          "name": "",
          "type": "uint256"
        }
      ],
      "stateMutability": "view",
      "type": "function",
      "constant": true
    },
    {
      "inputs": [
        {
          "internalType": "uint256",
          "name": "",
          "type": "uint256"
        }
      ],
      "name": "eventIds",
      "outputs": [
        {
          "internalType": "uint256",
          "name": "",
          "type": "uint256"
        }
      ],
      "stateMutability": "view",
      "type": "function",
      "constant": true
    },
    {
      "inputs": [
        {
          "internalType": "uint256",
          "name": "",
          "type": "uint256"
        }
      ],
      "name": "events",
      "outputs": [
        {
          "internalType": "string",
          "name": "name",
          "type": "string"
        },
        {
          "internalType": "uint256",
          "name": "id",
          "type": "uint256"
        },
        {
          "internalType": "address",
          "name": "organizer",
          "type": "address"
        },
        {
          "internalType": "uint256",
          "name": "pricePerTicketInUsd",
          "type": "uint256"
        },
        {
          "internalType": "uint256",
          "name": "maxTickets",
          "type": "uint256"
        },
        {
          "internalType": "uint256",
          "name": "ticketCount",
          "type": "uint256"
        }
      ],
      "stateMutability": "view",
      "type": "function",
      "constant": true
    },
    {
      "inputs": [],
      "name": "ticketCount",
      "outputs": [
        {
          "internalType": "uint256",
          "name": "",
          "type": "uint256"
        }
      ],
      "stateMutability": "view",
      "type": "function",
      "constant": true
    },
    {
      "inputs": [
        {
          "internalType": "uint256",
          "name": "",
          "type": "uint256"
        }
      ],
      "name": "tickets",
      "outputs": [
        {
          "internalType": "uint256",
          "name": "ticketId",
          "type": "uint256"
        },
        {
          "internalType": "uint256",
          "name": "eventId",
          "type": "uint256"
        }
      ],
      "stateMutability": "view",
      "type": "function",
      "constant": true
    },
    {
      "inputs": [
        {
          "internalType": "uint256",
          "name": "_priceInUsd",
          "type": "uint256"
        }
      ],
      "name": "getPriceInWei",
      "outputs": [
        {
          "internalType": "uint256",
          "name": "",
          "type": "uint256"
        }
      ],
      "stateMutability": "view",
      "type": "function",
      "constant": true
    },
    {
      "inputs": [
        {
          "internalType": "string",
          "name": "_name",
          "type": "string"
        },
        {
          "internalType": "uint256",
          "name": "_pricePerTicketInUsd",
          "type": "uint256"
        },
        {
          "internalType": "uint256",
          "name": "_maxTickets",
          "type": "uint256"
        }
      ],
      "name": "createEvent",
      "outputs": [
        {
          "internalType": "uint256",
          "name": "",
          "type": "uint256"
        }
      ],
      "stateMutability": "nonpayable",
      "type": "function"
    },
    {
      "inputs": [
        {
          "internalType": "uint256",
          "name": "_eventID",
          "type": "uint256"
        }
      ],
      "name": "purchaseTicket",
      "outputs": [
        {
          "internalType": "uint256",
          "name": "",
          "type": "uint256"
        }
      ],
      "stateMutability": "payable",
      "type": "function",
      "payable": true
    },
    {
      "inputs": [],
      "name": "getAllEventIds",
      "outputs": [
        {
          "internalType": "uint256[]",
          "name": "",
          "type": "uint256[]"
        }
      ],
      "stateMutability": "view",
      "type": "function",
      "constant": true
    },
    {
      "inputs": [
        {
          "internalType": "address",
          "name": "attendee",
          "type": "address"
        }
      ],
      "name": "getTickets",
      "outputs": [
        {
          "internalType": "uint256[]",
          "name": "",
          "type": "uint256[]"
        }
      ],
      "stateMutability": "view",
      "type": "function",
      "constant": true
    }
  ],
  "bytecode": "0x60806040526000600155600060025534801561001a57600080fd5b50739326bfa02add2366b30bacb125260af6410313316000806101000a81548173ffffffffffffffffffffffffffffffffffffffff021916908373ffffffffffffffffffffffffffffffffffffffff1602179055506117a38061007e6000396000f3fe6080604052600436106100915760003560e01c8063998f6ac011610059578063998f6ac0146101a95780639e9580f6146101e6578063aceb6cc614610223578063b948348c14610260578063cfbd900f1461029057610091565b80630ad182bc146100965780630b791430146100d357806350b4471214610115578063682e54cd1461015357806371be2e4a1461017e575b600080fd5b3480156100a257600080fd5b506100bd60048036038101906100b89190610c4e565b6102bb565b6040516100ca9190610d43565b60405180910390f35b3480156100df57600080fd5b506100fa60048036038101906100f59190610d91565b610355565b60405161010c96959493929190610e75565b60405180910390f35b34801561012157600080fd5b5061013c60048036038101906101379190610d91565b610439565b60405161014a929190610edd565b60405180910390f35b34801561015f57600080fd5b5061016861045d565b6040516101759190610d43565b60405180910390f35b34801561018a57600080fd5b506101936104b5565b6040516101a09190610f06565b60405180910390f35b3480156101b557600080fd5b506101d060048036038101906101cb9190610d91565b6104bb565b6040516101dd9190610f06565b60405180910390f35b3480156101f257600080fd5b5061020d60048036038101906102089190611056565b6104df565b60405161021a9190610f06565b60405180910390f35b34801561022f57600080fd5b5061024a60048036038101906102459190610d91565b61061a565b6040516102579190610f06565b60405180910390f35b61027a60048036038101906102759190610d91565b6107a2565b6040516102879190610f06565b60405180910390f35b34801561029c57600080fd5b506102a5610b33565b6040516102b29190610f06565b60405180910390f35b6060600560008373ffffffffffffffffffffffffffffffffffffffff1673ffffffffffffffffffffffffffffffffffffffff16815260200190815260200160002060000180548060200260200160405190810160405280929190818152602001828054801561034957602002820191906000526020600020905b815481526020019060010190808311610335575b50505050509050919050565b6003602052806000526040600020600091509050806000018054610378906110f4565b80601f01602080910402602001604051908101604052809291908181526020018280546103a4906110f4565b80156103f15780601f106103c6576101008083540402835291602001916103f1565b820191906000526020600020905b8154815290600101906020018083116103d457829003601f168201915b5050505050908060010154908060020160009054906101000a900473ffffffffffffffffffffffffffffffffffffffff16908060030154908060040154908060050154905086565b60066020528060005260406000206000915090508060000154908060010154905082565b606060048054806020026020016040519081016040528092919081815260200182805480156104ab57602002820191906000526020600020905b815481526020019060010190808311610497575b5050505050905090565b60015481565b600481815481106104cb57600080fd5b906000526020600020016000915090505481565b600080600154905060006040518060c001604052808781526020018381526020013373ffffffffffffffffffffffffffffffffffffffff168152602001868152602001858152602001600081525090508060036000848152602001908152602001600020600082015181600001908051906020019061055f929190610b39565b506020820151816001015560408201518160020160006101000a81548173ffffffffffffffffffffffffffffffffffffffff021916908373ffffffffffffffffffffffffffffffffffffffff160217905550606082015181600301556080820151816004015560a0820151816005015590505060048290806001815401808255809150506001900390600052602060002001600090919091909150556001826106089190611155565b60018190555081925050509392505050565b60008060008054906101000a900473ffffffffffffffffffffffffffffffffffffffff1673ffffffffffffffffffffffffffffffffffffffff1663feaf968c6040518163ffffffff1660e01b815260040160a06040518083038186803b15801561068357600080fd5b505afa158015610697573d6000803e3d6000fd5b505050506040513d601f19601f820116820180604052508101906106bb9190611238565b50505091505060008160008054906101000a900473ffffffffffffffffffffffffffffffffffffffff1673ffffffffffffffffffffffffffffffffffffffff1663313ce5676040518163ffffffff1660e01b815260040160206040518083038186803b15801561072a57600080fd5b505afa15801561073e573d6000803e3d6000fd5b505050506040513d601f19601f8201168201806040525081019061076291906112ec565b600a61076e919061144c565b670de0b6b3a76400006107819190611497565b61078b9190611520565b905080846107999190611497565b92505050919050565b6000816000600360008381526020019081526020016000206003015490506107c98161061a565b34101561080b576040517f08c379a0000000000000000000000000000000000000000000000000000000008152600401610802906115c3565b60405180910390fd5b836000600360008381526020019081526020016000209050806004015481600501541061086d576040517f08c379a00000000000000000000000000000000000000000000000000000000081526004016108649061162f565b60405180910390fd5b853360001515600560008373ffffffffffffffffffffffffffffffffffffffff1673ffffffffffffffffffffffffffffffffffffffff168152602001908152602001600020600201600084815260200190815260200160002060009054906101000a900460ff16151514610916576040517f08c379a000000000000000000000000000000000000000000000000000000000815260040161090d9061169b565b60405180910390fd5b6000600360008a815260200190815260200160002090506000600254905060016002546109439190611155565b6002819055506001826005015461095a9190611155565b82600501819055506000600560003373ffffffffffffffffffffffffffffffffffffffff1673ffffffffffffffffffffffffffffffffffffffff16815260200190815260200160002090508060000182908060018154018082558091505060019003906000526020600020016000909190919091505560018160020160008d815260200190815260200160002060006101000a81548160ff02191690831515021790555060405180604001604052808381526020018c8152508160010160008d815260200190815260200160002060008201518160000155602082015181600101559050506000610a4e846003015461061a565b905060008460020160009054906101000a900473ffffffffffffffffffffffffffffffffffffffff1673ffffffffffffffffffffffffffffffffffffffff1682604051610a9a906116ec565b60006040518083038185875af1925050503d8060008114610ad7576040519150601f19603f3d011682016040523d82523d6000602084013e610adc565b606091505b5050905080610b20576040517f08c379a0000000000000000000000000000000000000000000000000000000008152600401610b179061174d565b60405180910390fd5b839b505050505050505050505050919050565b60025481565b828054610b45906110f4565b90600052602060002090601f016020900481019282610b675760008555610bae565b82601f10610b8057805160ff1916838001178555610bae565b82800160010185558215610bae579182015b82811115610bad578251825591602001919060010190610b92565b5b509050610bbb9190610bbf565b5090565b5b80821115610bd8576000816000905550600101610bc0565b5090565b6000604051905090565b600080fd5b600080fd5b600073ffffffffffffffffffffffffffffffffffffffff82169050919050565b6000610c1b82610bf0565b9050919050565b610c2b81610c10565b8114610c3657600080fd5b50565b600081359050610c4881610c22565b92915050565b600060208284031215610c6457610c63610be6565b5b6000610c7284828501610c39565b91505092915050565b600081519050919050565b600082825260208201905092915050565b6000819050602082019050919050565b6000819050919050565b610cba81610ca7565b82525050565b6000610ccc8383610cb1565b60208301905092915050565b6000602082019050919050565b6000610cf082610c7b565b610cfa8185610c86565b9350610d0583610c97565b8060005b83811015610d36578151610d1d8882610cc0565b9750610d2883610cd8565b925050600181019050610d09565b5085935050505092915050565b60006020820190508181036000830152610d5d8184610ce5565b905092915050565b610d6e81610ca7565b8114610d7957600080fd5b50565b600081359050610d8b81610d65565b92915050565b600060208284031215610da757610da6610be6565b5b6000610db584828501610d7c565b91505092915050565b600081519050919050565b600082825260208201905092915050565b60005b83811015610df8578082015181840152602081019050610ddd565b83811115610e07576000848401525b50505050565b6000601f19601f8301169050919050565b6000610e2982610dbe565b610e338185610dc9565b9350610e43818560208601610dda565b610e4c81610e0d565b840191505092915050565b610e6081610ca7565b82525050565b610e6f81610c10565b82525050565b600060c0820190508181036000830152610e8f8189610e1e565b9050610e9e6020830188610e57565b610eab6040830187610e66565b610eb86060830186610e57565b610ec56080830185610e57565b610ed260a0830184610e57565b979650505050505050565b6000604082019050610ef26000830185610e57565b610eff6020830184610e57565b9392505050565b6000602082019050610f1b6000830184610e57565b92915050565b600080fd5b600080fd5b7f4e487b7100000000000000000000000000000000000000000000000000000000600052604160045260246000fd5b610f6382610e0d565b810181811067ffffffffffffffff82111715610f8257610f81610f2b565b5b80604052505050565b6000610f95610bdc565b9050610fa18282610f5a565b919050565b600067ffffffffffffffff821115610fc157610fc0610f2b565b5b610fca82610e0d565b9050602081019050919050565b82818337600083830152505050565b6000610ff9610ff484610fa6565b610f8b565b90508281526020810184848401111561101557611014610f26565b5b611020848285610fd7565b509392505050565b600082601f83011261103d5761103c610f21565b5b813561104d848260208601610fe6565b91505092915050565b60008060006060848603121561106f5761106e610be6565b5b600084013567ffffffffffffffff81111561108d5761108c610beb565b5b61109986828701611028565b93505060206110aa86828701610d7c565b92505060406110bb86828701610d7c565b9150509250925092565b7f4e487b7100000000000000000000000000000000000000000000000000000000600052602260045260246000fd5b6000600282049050600182168061110c57607f821691505b602082108114156111205761111f6110c5565b5b50919050565b7f4e487b7100000000000000000000000000000000000000000000000000000000600052601160045260246000fd5b600061116082610ca7565b915061116b83610ca7565b9250827fffffffffffffffffffffffffffffffffffffffffffffffffffffffffffffffff038211156111a05761119f611126565b5b828201905092915050565b600069ffffffffffffffffffff82169050919050565b6111ca816111ab565b81146111d557600080fd5b50565b6000815190506111e7816111c1565b92915050565b6000819050919050565b611200816111ed565b811461120b57600080fd5b50565b60008151905061121d816111f7565b92915050565b60008151905061123281610d65565b92915050565b600080600080600060a0868803121561125457611253610be6565b5b6000611262888289016111d8565b95505060206112738882890161120e565b945050604061128488828901611223565b935050606061129588828901611223565b92505060806112a6888289016111d8565b9150509295509295909350565b600060ff82169050919050565b6112c9816112b3565b81146112d457600080fd5b50565b6000815190506112e6816112c0565b92915050565b60006020828403121561130257611301610be6565b5b6000611310848285016112d7565b91505092915050565b60008160011c9050919050565b6000808291508390505b60018511156113705780860481111561134c5761134b611126565b5b600185161561135b5780820291505b808102905061136985611319565b9450611330565b94509492505050565b6000826113895760019050611445565b816113975760009050611445565b81600181146113ad57600281146113b7576113e6565b6001915050611445565b60ff8411156113c9576113c8611126565b5b8360020a9150848211156113e0576113df611126565b5b50611445565b5060208310610133831016604e8410600b841016171561141b5782820a90508381111561141657611415611126565b5b611445565b6114288484846001611326565b9250905081840481111561143f5761143e611126565b5b81810290505b9392505050565b600061145782610ca7565b9150611462836112b3565b925061148f7fffffffffffffffffffffffffffffffffffffffffffffffffffffffffffffffff8484611379565b905092915050565b60006114a282610ca7565b91506114ad83610ca7565b9250817fffffffffffffffffffffffffffffffffffffffffffffffffffffffffffffffff04831182151516156114e6576114e5611126565b5b828202905092915050565b7f4e487b7100000000000000000000000000000000000000000000000000000000600052601260045260246000fd5b600061152b82610ca7565b915061153683610ca7565b925082611546576115456114f1565b5b828204905092915050565b7f46756e64732073656e74206d75737420636f766572207072696365206f66207460008201527f69636b6574210000000000000000000000000000000000000000000000000000602082015250565b60006115ad602683610dc9565b91506115b882611551565b604082019050919050565b600060208201905081810360008301526115dc816115a0565b9050919050565b7f4e6f2072656d61696e696e67207469636b657473210000000000000000000000600082015250565b6000611619601583610dc9565b9150611624826115e3565b602082019050919050565b600060208201905081810360008301526116488161160c565b9050919050565b7f5573657220616c7265616479206f776e732061207469636b6574210000000000600082015250565b6000611685601b83610dc9565b91506116908261164f565b602082019050919050565b600060208201905081810360008301526116b481611678565b9050919050565b600081905092915050565b50565b60006116d66000836116bb565b91506116e1826116c6565b600082019050919050565b60006116f7826116c9565b9150819050919050565b7f5472616e73666572206661696c65642e00000000000000000000000000000000600082015250565b6000611737601083610dc9565b915061174282611701565b602082019050919050565b600060208201905081810360008301526117668161172a565b905091905056fea264697066735822122037f53815ff829ab5f33edda92e665f969a7939c2ca0c89837288de9c75cae8f064736f6c63430008090033",
  "immutableReferences": {},
  "source": "// SPDX-License-Identifier: MIT\npragma solidity >=0.8.2 < 0.9.0;\n\nimport \"@chainlink/contracts/src/v0.8/interfaces/AggregatorV3Interface.sol\";\n\n/// @title An event ticketing contract\n/// @author Kevin Lu\n/// @notice This contract implements the most basic event ticketing requirements of event creation and ticket purchasing\ncontract Ticketing {\n\n  AggregatorV3Interface internal priceFeed;\n\n  /// @notice Stores the number of created events (which also is the event id for now)\n  uint public eventCount = 0;\n  /// @notice Stores the number of purchased tickets (which also is the ticket id for now)\n  uint public ticketCount = 0;\n  /// @notice Stores a mapping of event id to Event struct\n  mapping(uint => Event) public events;\n  /// @notice Stores an array of created event ids\n  uint[] public eventIds;\n  /// @notice Stores a mapping of attendee address to Attendee struct\n  mapping(address => Attendee) attendees;\n  /// @notice Stores a mapping of ticket id to Ticket struct\n  mapping(uint => Ticket) public tickets;\n\n  struct Event {\n    string name;\n    uint id;\n    address organizer;\n    uint pricePerTicketInUsd;\n    uint maxTickets;\n    uint ticketCount;\n  }\n\n  struct Ticket {\n    uint ticketId;\n    uint eventId;\n  }\n\n  struct Attendee {\n    uint[] ticketIds;\n    mapping(uint => Ticket) tickets;  // ticket id to Ticket struct\n    mapping(uint => bool) events;  // event id to bool (true if has ticket for event)\n  }\n\n  constructor() {\n    priceFeed = AggregatorV3Interface(0x9326BFA02ADD2366b30bacB125260Af641031331);\n  }\n\n  modifier paidEnough(uint _eventID) {\n    uint pricePerTicketInUsd = events[_eventID].pricePerTicketInUsd;\n    require(msg.value >= getPriceInWei(pricePerTicketInUsd), \"Funds sent must cover price of ticket!\");\n    _;\n  }\n\n  modifier hasRemainingTickets(uint _eventID) {\n    Event storage eventStruct = events[_eventID];\n    require(eventStruct.ticketCount < eventStruct.maxTickets, \"No remaining tickets!\");\n    _;\n  }\n\n  modifier doesNotAlreadyOwn(uint _eventID, address _purchaser) {\n    require(attendees[_purchaser].events[_eventID] == false, \"User already owns a ticket!\");\n    _;\n  }\n\n  /// @notice Calculate USD ticket price in wei\n  /// @param _priceInUsd The price of a ticket in USD\n  /// @return Ticket price in wei\n  function getPriceInWei(uint _priceInUsd) public view returns (uint) {\n    (,int price,,,) = priceFeed.latestRoundData();\n    uint usdToWei = (10**18)*(10**priceFeed.decimals())/uint(price);\n    return _priceInUsd * usdToWei;\n  }\n\n  /// @notice Create an event with provided parameters\n  /// @param _name Name of event\n  /// @param _pricePerTicketInUsd The price of a ticket in USD\n  /// @param _maxTickets Max tickets to sell\n  /// @return Created event id\n  function createEvent(string memory _name, uint _pricePerTicketInUsd, uint _maxTickets) public returns (uint) {\n    // registers a new event and returns the newly created event id\n    uint eventId = eventCount;\n\n    Event memory eventStruct = Event({\n      name: _name,\n      id: eventId,\n      organizer: msg.sender,\n      pricePerTicketInUsd: _pricePerTicketInUsd,\n      maxTickets: _maxTickets,\n      ticketCount: 0\n    });\n\n    events[eventId] = eventStruct;\n    eventIds.push(eventId);\n\n    eventCount = eventId + 1;\n\n    return eventId;\n  }\n\n  /// @notice Purchase a ticket for the given event id\n  /// @param _eventID Event id to purchase ticket from\n  /// @return Purchased ticket id\n  function purchaseTicket(uint _eventID) public payable paidEnough(_eventID) hasRemainingTickets(_eventID) doesNotAlreadyOwn(_eventID, msg.sender) returns (uint) {\n    // purchase a ticket from the provided event\n    Event storage eventStruct = events[_eventID];\n    uint ticketId = ticketCount;\n    ticketCount = ticketCount + 1;\n    eventStruct.ticketCount = eventStruct.ticketCount  + 1;\n\n    Attendee storage attendee = attendees[msg.sender];\n    attendee.ticketIds.push(ticketId);\n    attendee.events[_eventID] = true;\n    attendee.tickets[_eventID] = Ticket({\n      ticketId: ticketId,\n      eventId: _eventID\n    });\n\n    uint priceInWei = getPriceInWei(eventStruct.pricePerTicketInUsd);\n\n    // payable(eventStruct.organizer).transfer(priceInWei);\n    (bool success, ) = eventStruct.organizer.call{value: priceInWei}('');\n    require(success, \"Transfer failed.\");\n\n    return ticketId;\n  }\n\n  /// @notice Get all event ids\n  /// @return Event ids\n  function getAllEventIds() public view returns (uint[] memory) {\n    return eventIds;\n  }\n\n  /// @notice Get ticket ids for a given attendee\n  /// @param attendee Attendee address\n  /// @return Ticket ids owned by the attendee address\n  function getTickets(address attendee) public view returns (uint[] memory) {\n    return attendees[attendee].ticketIds;\n  }\n}\n",
  "sourcePath": "/Users/kevin/consensys/blockchain-developer-bootcamp-final-project/web3/contracts/Ticketing.sol",
  "compiler": {
    "name": "solc",
    "version": "0.8.9+commit.e5eed63a.Emscripten.clang"
  },
  "schemaVersion": "3.4.3",
  "updatedAt": "2021-11-27T21:19:44.458Z",
  "networkType": "ethereum",
  "devdoc": {
    "author": "Kevin Lu",
    "kind": "dev",
    "methods": {
      "createEvent(string,uint256,uint256)": {
        "params": {
          "_maxTickets": "Max tickets to sell",
          "_name": "Name of event",
          "_pricePerTicketInUsd": "The price of a ticket in USD"
        },
        "returns": {
          "_0": "Created event id"
        }
      },
      "getAllEventIds()": {
        "returns": {
          "_0": "Event ids"
        }
      },
      "getPriceInWei(uint256)": {
        "params": {
          "_priceInUsd": "The price of a ticket in USD"
        },
        "returns": {
          "_0": "Ticket price in wei"
        }
      },
      "getTickets(address)": {
        "params": {
          "attendee": "Attendee address"
        },
        "returns": {
          "_0": "Ticket ids owned by the attendee address"
        }
      },
      "purchaseTicket(uint256)": {
        "params": {
          "_eventID": "Event id to purchase ticket from"
        },
        "returns": {
          "_0": "Purchased ticket id"
        }
      }
    },
    "title": "An event ticketing contract",
    "version": 1
  },
  "userdoc": {
    "kind": "user",
    "methods": {
      "createEvent(string,uint256,uint256)": {
        "notice": "Create an event with provided parameters"
      },
      "eventCount()": {
        "notice": "Stores the number of created events (which also is the event id for now)"
      },
      "eventIds(uint256)": {
        "notice": "Stores an array of created event ids"
      },
      "events(uint256)": {
        "notice": "Stores a mapping of event id to Event struct"
      },
      "getAllEventIds()": {
        "notice": "Get all event ids"
      },
      "getPriceInWei(uint256)": {
        "notice": "Calculate USD ticket price in wei"
      },
      "getTickets(address)": {
        "notice": "Get ticket ids for a given attendee"
      },
      "purchaseTicket(uint256)": {
        "notice": "Purchase a ticket for the given event id"
      },
      "ticketCount()": {
        "notice": "Stores the number of purchased tickets (which also is the ticket id for now)"
      },
      "tickets(uint256)": {
        "notice": "Stores a mapping of ticket id to Ticket struct"
      }
    },
    "notice": "This contract implements the most basic event ticketing requirements of event creation and ticket purchasing",
    "version": 1
  }
}