{
  "contractName": "Ticketing",
  "abi": [
    {
      "inputs": [],
      "name": "eventCount",
      "outputs": [
        {
          "internalType": "uint256",
          "name": "",
          "type": "uint256"
        }
      ],
      "stateMutability": "view",
      "type": "function"
    },
    {
      "inputs": [
        {
          "internalType": "uint256",
          "name": "",
          "type": "uint256"
        }
      ],
      "name": "eventIds",
      "outputs": [
        {
          "internalType": "uint256",
          "name": "",
          "type": "uint256"
        }
      ],
      "stateMutability": "view",
      "type": "function"
    },
    {
      "inputs": [
        {
          "internalType": "uint256",
          "name": "",
          "type": "uint256"
        }
      ],
      "name": "events",
      "outputs": [
        {
          "internalType": "string",
          "name": "name",
          "type": "string"
        },
        {
          "internalType": "uint256",
          "name": "id",
          "type": "uint256"
        },
        {
          "internalType": "address",
          "name": "organizer",
          "type": "address"
        },
        {
          "internalType": "uint256",
          "name": "pricePerTicket",
          "type": "uint256"
        },
        {
          "internalType": "uint256",
          "name": "maxTickets",
          "type": "uint256"
        },
        {
          "internalType": "uint256",
          "name": "ticketCount",
          "type": "uint256"
        }
      ],
      "stateMutability": "view",
      "type": "function"
    },
    {
      "inputs": [],
      "name": "ticketCount",
      "outputs": [
        {
          "internalType": "uint256",
          "name": "",
          "type": "uint256"
        }
      ],
      "stateMutability": "view",
      "type": "function"
    },
    {
      "inputs": [
        {
          "internalType": "uint256",
          "name": "",
          "type": "uint256"
        }
      ],
      "name": "tickets",
      "outputs": [
        {
          "internalType": "uint256",
          "name": "ticketId",
          "type": "uint256"
        },
        {
          "internalType": "uint256",
          "name": "eventId",
          "type": "uint256"
        }
      ],
      "stateMutability": "view",
      "type": "function"
    },
    {
      "inputs": [
        {
          "internalType": "string",
          "name": "_name",
          "type": "string"
        },
        {
          "internalType": "uint256",
          "name": "_pricePerTicket",
          "type": "uint256"
        },
        {
          "internalType": "uint256",
          "name": "_maxTickets",
          "type": "uint256"
        }
      ],
      "name": "createEvent",
      "outputs": [
        {
          "internalType": "uint256",
          "name": "",
          "type": "uint256"
        }
      ],
      "stateMutability": "nonpayable",
      "type": "function"
    },
    {
      "inputs": [
        {
          "internalType": "uint256",
          "name": "_eventID",
          "type": "uint256"
        }
      ],
      "name": "purchaseTicket",
      "outputs": [
        {
          "internalType": "uint256",
          "name": "",
          "type": "uint256"
        }
      ],
      "stateMutability": "payable",
      "type": "function"
    },
    {
      "inputs": [],
      "name": "getAllEventIds",
      "outputs": [
        {
          "internalType": "uint256[]",
          "name": "",
          "type": "uint256[]"
        }
      ],
      "stateMutability": "view",
      "type": "function"
    },
    {
      "inputs": [
        {
          "internalType": "address",
          "name": "attendee",
          "type": "address"
        }
      ],
      "name": "getTickets",
      "outputs": [
        {
          "internalType": "uint256[]",
          "name": "",
          "type": "uint256[]"
        }
      ],
      "stateMutability": "view",
      "type": "function"
    }
  ],
  "bytecode": "0x608060405260008055600060015534801561001957600080fd5b506110fa806100296000396000f3fe6080604052600436106100865760003560e01c806371be2e4a1161005957806371be2e4a14610173578063998f6ac01461019e5780639e9580f6146101db578063b948348c14610218578063cfbd900f1461024857610086565b80630ad182bc1461008b5780630b791430146100c857806350b447121461010a578063682e54cd14610148575b600080fd5b34801561009757600080fd5b506100b260048036038101906100ad91906109fd565b610273565b6040516100bf9190610af2565b60405180910390f35b3480156100d457600080fd5b506100ef60048036038101906100ea9190610b40565b61030d565b60405161010196959493929190610c24565b60405180910390f35b34801561011657600080fd5b50610131600480360381019061012c9190610b40565b6103f1565b60405161013f929190610c8c565b60405180910390f35b34801561015457600080fd5b5061015d610415565b60405161016a9190610af2565b60405180910390f35b34801561017f57600080fd5b5061018861046d565b6040516101959190610cb5565b60405180910390f35b3480156101aa57600080fd5b506101c560048036038101906101c09190610b40565b610473565b6040516101d29190610cb5565b60405180910390f35b3480156101e757600080fd5b5061020260048036038101906101fd9190610e05565b610497565b60405161020f9190610cb5565b60405180910390f35b610232600480360381019061022d9190610b40565b6105d2565b60405161023f9190610cb5565b60405180910390f35b34801561025457600080fd5b5061025d6108e2565b60405161026a9190610cb5565b60405180910390f35b6060600460008373ffffffffffffffffffffffffffffffffffffffff1673ffffffffffffffffffffffffffffffffffffffff16815260200190815260200160002060000180548060200260200160405190810160405280929190818152602001828054801561030157602002820191906000526020600020905b8154815260200190600101908083116102ed575b50505050509050919050565b600260205280600052604060002060009150905080600001805461033090610ea3565b80601f016020809104026020016040519081016040528092919081815260200182805461035c90610ea3565b80156103a95780601f1061037e576101008083540402835291602001916103a9565b820191906000526020600020905b81548152906001019060200180831161038c57829003601f168201915b5050505050908060010154908060020160009054906101000a900473ffffffffffffffffffffffffffffffffffffffff16908060030154908060040154908060050154905086565b60056020528060005260406000206000915090508060000154908060010154905082565b6060600380548060200260200160405190810160405280929190818152602001828054801561046357602002820191906000526020600020905b81548152602001906001019080831161044f575b5050505050905090565b60005481565b6003818154811061048357600080fd5b906000526020600020016000915090505481565b600080600054905060006040518060c001604052808781526020018381526020013373ffffffffffffffffffffffffffffffffffffffff16815260200186815260200185815260200160008152509050806002600084815260200190815260200160002060008201518160000190805190602001906105179291906108e8565b506020820151816001015560408201518160020160006101000a81548173ffffffffffffffffffffffffffffffffffffffff021916908373ffffffffffffffffffffffffffffffffffffffff160217905550606082015181600301556080820151816004015560a0820151816005015590505060038290806001815401808255809150506001900390600052602060002001600090919091909150556001826105c09190610f04565b60008190555081925050509392505050565b60008160006002600083815260200190815260200160002060030154905080341015610633576040517f08c379a000000000000000000000000000000000000000000000000000000000815260040161062a90610fcc565b60405180910390fd5b8360006002600083815260200190815260200160002090508060040154816005015410610695576040517f08c379a000000000000000000000000000000000000000000000000000000000815260040161068c90611038565b60405180910390fd5b853360001515600460008373ffffffffffffffffffffffffffffffffffffffff1673ffffffffffffffffffffffffffffffffffffffff168152602001908152602001600020600201600084815260200190815260200160002060009054906101000a900460ff1615151461073e576040517f08c379a0000000000000000000000000000000000000000000000000000000008152600401610735906110a4565b60405180910390fd5b6000600260008a81526020019081526020016000209050600060015490506001805461076a9190610f04565b60018190555060018161077d9190610f04565b82600501819055506000600460003373ffffffffffffffffffffffffffffffffffffffff1673ffffffffffffffffffffffffffffffffffffffff16815260200190815260200160002090508060000182908060018154018082558091505060019003906000526020600020016000909190919091505560018160020160008d815260200190815260200160002060006101000a81548160ff02191690831515021790555060405180604001604052808381526020018c8152508160010160008d815260200190815260200160002060008201518160000155602082015181600101559050508260020160009054906101000a900473ffffffffffffffffffffffffffffffffffffffff1673ffffffffffffffffffffffffffffffffffffffff166108fc84600301549081150290604051600060405180830381858888f193505050501580156108d0573d6000803e3d6000fd5b50819950505050505050505050919050565b60015481565b8280546108f490610ea3565b90600052602060002090601f016020900481019282610916576000855561095d565b82601f1061092f57805160ff191683800117855561095d565b8280016001018555821561095d579182015b8281111561095c578251825591602001919060010190610941565b5b50905061096a919061096e565b5090565b5b8082111561098757600081600090555060010161096f565b5090565b6000604051905090565b600080fd5b600080fd5b600073ffffffffffffffffffffffffffffffffffffffff82169050919050565b60006109ca8261099f565b9050919050565b6109da816109bf565b81146109e557600080fd5b50565b6000813590506109f7816109d1565b92915050565b600060208284031215610a1357610a12610995565b5b6000610a21848285016109e8565b91505092915050565b600081519050919050565b600082825260208201905092915050565b6000819050602082019050919050565b6000819050919050565b610a6981610a56565b82525050565b6000610a7b8383610a60565b60208301905092915050565b6000602082019050919050565b6000610a9f82610a2a565b610aa98185610a35565b9350610ab483610a46565b8060005b83811015610ae5578151610acc8882610a6f565b9750610ad783610a87565b925050600181019050610ab8565b5085935050505092915050565b60006020820190508181036000830152610b0c8184610a94565b905092915050565b610b1d81610a56565b8114610b2857600080fd5b50565b600081359050610b3a81610b14565b92915050565b600060208284031215610b5657610b55610995565b5b6000610b6484828501610b2b565b91505092915050565b600081519050919050565b600082825260208201905092915050565b60005b83811015610ba7578082015181840152602081019050610b8c565b83811115610bb6576000848401525b50505050565b6000601f19601f8301169050919050565b6000610bd882610b6d565b610be28185610b78565b9350610bf2818560208601610b89565b610bfb81610bbc565b840191505092915050565b610c0f81610a56565b82525050565b610c1e816109bf565b82525050565b600060c0820190508181036000830152610c3e8189610bcd565b9050610c4d6020830188610c06565b610c5a6040830187610c15565b610c676060830186610c06565b610c746080830185610c06565b610c8160a0830184610c06565b979650505050505050565b6000604082019050610ca16000830185610c06565b610cae6020830184610c06565b9392505050565b6000602082019050610cca6000830184610c06565b92915050565b600080fd5b600080fd5b7f4e487b7100000000000000000000000000000000000000000000000000000000600052604160045260246000fd5b610d1282610bbc565b810181811067ffffffffffffffff82111715610d3157610d30610cda565b5b80604052505050565b6000610d4461098b565b9050610d508282610d09565b919050565b600067ffffffffffffffff821115610d7057610d6f610cda565b5b610d7982610bbc565b9050602081019050919050565b82818337600083830152505050565b6000610da8610da384610d55565b610d3a565b905082815260208101848484011115610dc457610dc3610cd5565b5b610dcf848285610d86565b509392505050565b600082601f830112610dec57610deb610cd0565b5b8135610dfc848260208601610d95565b91505092915050565b600080600060608486031215610e1e57610e1d610995565b5b600084013567ffffffffffffffff811115610e3c57610e3b61099a565b5b610e4886828701610dd7565b9350506020610e5986828701610b2b565b9250506040610e6a86828701610b2b565b9150509250925092565b7f4e487b7100000000000000000000000000000000000000000000000000000000600052602260045260246000fd5b60006002820490506001821680610ebb57607f821691505b60208210811415610ecf57610ece610e74565b5b50919050565b7f4e487b7100000000000000000000000000000000000000000000000000000000600052601160045260246000fd5b6000610f0f82610a56565b9150610f1a83610a56565b9250827fffffffffffffffffffffffffffffffffffffffffffffffffffffffffffffffff03821115610f4f57610f4e610ed5565b5b828201905092915050565b7f46756e64732073656e74206d75737420636f766572207072696365206f66207460008201527f69636b6574210000000000000000000000000000000000000000000000000000602082015250565b6000610fb6602683610b78565b9150610fc182610f5a565b604082019050919050565b60006020820190508181036000830152610fe581610fa9565b9050919050565b7f4e6f2072656d61696e696e67207469636b657473210000000000000000000000600082015250565b6000611022601583610b78565b915061102d82610fec565b602082019050919050565b6000602082019050818103600083015261105181611015565b9050919050565b7f5573657220616c7265616479206f776e732061207469636b6574210000000000600082015250565b600061108e601b83610b78565b915061109982611058565b602082019050919050565b600060208201905081810360008301526110bd81611081565b905091905056fea264697066735822122095a271edd9ebadc24d1538d3029fbf85f7beb3de710f54807af84bfde33a271f64736f6c63430008090033",
  "immutableReferences": {},
  "source": "// SPDX-License-Identifier: MIT\npragma solidity >=0.5.16 <0.9.0;\n\ncontract Ticketing {\n\n  uint public eventCount = 0;\n  uint public ticketCount = 0;\n\n  mapping(uint => Event) public events;  // event id to Event struct\n  uint[] public eventIds;\n\n  // mapping(address => uint[]) public purchasedTickets;  // attendee address to purchased ticket id array\n  // mapping(address => mapping(uint => Ticket)) public purchasedTicketsByEvent;  // attendee address to mapping of (event id to Ticket struct)\n  mapping(address => Attendee) attendees;  // attendee address to Attendee struct\n  mapping(uint => Ticket) public tickets;  // ticket id to Ticket struct\n\n  struct Event {\n    string name;\n    uint id;\n    address organizer;\n    uint pricePerTicket;\n    uint maxTickets;\n    uint ticketCount;\n  }\n\n  struct Ticket {\n    uint ticketId;\n    uint eventId;\n  }\n\n  struct Attendee {\n    uint[] ticketIds;\n    mapping(uint => Ticket) tickets;  // ticket id to Ticket struct\n    mapping(uint => bool) events;  // event id to bool (true if has ticket for event)\n  }\n\n  modifier paidEnough(uint _eventID) {\n    uint pricePerTicket = events[_eventID].pricePerTicket;\n    require(msg.value >= pricePerTicket, \"Funds sent must cover price of ticket!\");\n    _;\n  }\n\n  modifier hasRemainingTickets(uint _eventID) {\n    Event storage eventStruct = events[_eventID];\n    require(eventStruct.ticketCount < eventStruct.maxTickets, \"No remaining tickets!\");\n    _;\n  }\n\n  modifier doesNotAlreadyOwn(uint _eventID, address _purchaser) {\n    require(attendees[_purchaser].events[_eventID] == false, \"User already owns a ticket!\");\n    _;\n  }\n\n  function createEvent(string memory _name, uint _pricePerTicket, uint _maxTickets) public returns (uint) {\n    // registers a new event and returns the newly created event id\n    uint eventId = eventCount;\n\n    Event memory eventStruct = Event({\n      name: _name,\n      id: eventId,\n      organizer: msg.sender,\n      pricePerTicket: _pricePerTicket,\n      maxTickets: _maxTickets,\n      ticketCount: 0\n    });\n\n    events[eventId] = eventStruct;\n    eventIds.push(eventId);\n\n    eventCount = eventId + 1;\n\n    return eventId;\n  }\n\n  function purchaseTicket(uint _eventID) public payable paidEnough(_eventID) hasRemainingTickets(_eventID) doesNotAlreadyOwn(_eventID, msg.sender) returns (uint) {\n    // purchase a ticket from the provided event\n    Event storage eventStruct = events[_eventID];\n    uint ticketId = ticketCount;\n    ticketCount = ticketCount + 1;\n    eventStruct.ticketCount = ticketId + 1;\n\n    Attendee storage attendee = attendees[msg.sender];\n    attendee.ticketIds.push(ticketId);\n    attendee.events[_eventID] = true;\n    attendee.tickets[_eventID] = Ticket({\n      ticketId: ticketId,\n      eventId: _eventID\n    });\n\n    payable(eventStruct.organizer).transfer(eventStruct.pricePerTicket);\n\n    return ticketId;\n  }\n\n  function getAllEventIds() public view returns (uint[] memory) {\n    return eventIds;\n  }\n\n  function getTickets(address attendee) public view returns (uint[] memory) {\n    return attendees[attendee].ticketIds;\n  }\n}\n",
  "sourcePath": "/Users/kevin/consensys/blockchain-developer-bootcamp-final-project/web3/contracts/Ticketing.sol",
  "compiler": {
    "name": "solc",
    "version": "0.8.9+commit.e5eed63a.Emscripten.clang"
  },
  "schemaVersion": "3.4.3",
  "updatedAt": "2021-11-26T09:27:46.721Z",
  "devdoc": {
    "kind": "dev",
    "methods": {},
    "version": 1
  },
  "userdoc": {
    "kind": "user",
    "methods": {},
    "version": 1
  }
}