{
  "contractName": "Ticketing",
  "abi": [
    {
      "inputs": [],
      "stateMutability": "nonpayable",
      "type": "constructor"
    },
    {
      "anonymous": false,
      "inputs": [
        {
          "indexed": true,
          "internalType": "address",
          "name": "previousOwner",
          "type": "address"
        },
        {
          "indexed": true,
          "internalType": "address",
          "name": "newOwner",
          "type": "address"
        }
      ],
      "name": "OwnershipTransferred",
      "type": "event"
    },
    {
      "inputs": [],
      "name": "eventCount",
      "outputs": [
        {
          "internalType": "uint256",
          "name": "",
          "type": "uint256"
        }
      ],
      "stateMutability": "view",
      "type": "function"
    },
    {
      "inputs": [
        {
          "internalType": "uint256",
          "name": "",
          "type": "uint256"
        }
      ],
      "name": "eventIds",
      "outputs": [
        {
          "internalType": "uint256",
          "name": "",
          "type": "uint256"
        }
      ],
      "stateMutability": "view",
      "type": "function"
    },
    {
      "inputs": [
        {
          "internalType": "uint256",
          "name": "",
          "type": "uint256"
        }
      ],
      "name": "events",
      "outputs": [
        {
          "internalType": "string",
          "name": "name",
          "type": "string"
        },
        {
          "internalType": "uint256",
          "name": "id",
          "type": "uint256"
        },
        {
          "internalType": "address",
          "name": "organizer",
          "type": "address"
        },
        {
          "internalType": "uint256",
          "name": "pricePerTicketInUsd",
          "type": "uint256"
        },
        {
          "internalType": "uint256",
          "name": "maxTickets",
          "type": "uint256"
        },
        {
          "internalType": "uint256",
          "name": "ticketCount",
          "type": "uint256"
        }
      ],
      "stateMutability": "view",
      "type": "function"
    },
    {
      "inputs": [],
      "name": "owner",
      "outputs": [
        {
          "internalType": "address",
          "name": "",
          "type": "address"
        }
      ],
      "stateMutability": "view",
      "type": "function"
    },
    {
      "inputs": [],
      "name": "renounceOwnership",
      "outputs": [],
      "stateMutability": "nonpayable",
      "type": "function"
    },
    {
      "inputs": [],
      "name": "ticketCount",
      "outputs": [
        {
          "internalType": "uint256",
          "name": "",
          "type": "uint256"
        }
      ],
      "stateMutability": "view",
      "type": "function"
    },
    {
      "inputs": [
        {
          "internalType": "uint256",
          "name": "",
          "type": "uint256"
        }
      ],
      "name": "tickets",
      "outputs": [
        {
          "internalType": "uint256",
          "name": "ticketId",
          "type": "uint256"
        },
        {
          "internalType": "uint256",
          "name": "eventId",
          "type": "uint256"
        }
      ],
      "stateMutability": "view",
      "type": "function"
    },
    {
      "inputs": [
        {
          "internalType": "address",
          "name": "newOwner",
          "type": "address"
        }
      ],
      "name": "transferOwnership",
      "outputs": [],
      "stateMutability": "nonpayable",
      "type": "function"
    },
    {
      "inputs": [
        {
          "internalType": "uint256",
          "name": "_priceInUsd",
          "type": "uint256"
        }
      ],
      "name": "getPriceInWei",
      "outputs": [
        {
          "internalType": "uint256",
          "name": "",
          "type": "uint256"
        }
      ],
      "stateMutability": "view",
      "type": "function"
    },
    {
      "inputs": [
        {
          "internalType": "string",
          "name": "_name",
          "type": "string"
        },
        {
          "internalType": "uint256",
          "name": "_pricePerTicketInUsd",
          "type": "uint256"
        },
        {
          "internalType": "uint256",
          "name": "_maxTickets",
          "type": "uint256"
        }
      ],
      "name": "createEvent",
      "outputs": [
        {
          "internalType": "uint256",
          "name": "",
          "type": "uint256"
        }
      ],
      "stateMutability": "nonpayable",
      "type": "function"
    },
    {
      "inputs": [
        {
          "internalType": "uint256",
          "name": "_eventID",
          "type": "uint256"
        }
      ],
      "name": "purchaseTicket",
      "outputs": [
        {
          "internalType": "uint256",
          "name": "",
          "type": "uint256"
        }
      ],
      "stateMutability": "payable",
      "type": "function"
    },
    {
      "inputs": [],
      "name": "getAllEventIds",
      "outputs": [
        {
          "internalType": "uint256[]",
          "name": "",
          "type": "uint256[]"
        }
      ],
      "stateMutability": "view",
      "type": "function"
    },
    {
      "inputs": [
        {
          "internalType": "address",
          "name": "attendee",
          "type": "address"
        }
      ],
      "name": "getTickets",
      "outputs": [
        {
          "internalType": "uint256[]",
          "name": "",
          "type": "uint256[]"
        }
      ],
      "stateMutability": "view",
      "type": "function"
    },
    {
      "inputs": [],
      "name": "getOwner",
      "outputs": [
        {
          "internalType": "address",
          "name": "",
          "type": "address"
        }
      ],
      "stateMutability": "view",
      "type": "function"
    }
  ],
  "bytecode": "0x60806040526000600255600060035534801561001a57600080fd5b5061003761002c61009160201b60201c565b61009960201b60201c565b739326bfa02add2366b30bacb125260af641031331600160006101000a81548173ffffffffffffffffffffffffffffffffffffffff021916908373ffffffffffffffffffffffffffffffffffffffff16021790555061015d565b600033905090565b60008060009054906101000a900473ffffffffffffffffffffffffffffffffffffffff169050816000806101000a81548173ffffffffffffffffffffffffffffffffffffffff021916908373ffffffffffffffffffffffffffffffffffffffff1602179055508173ffffffffffffffffffffffffffffffffffffffff168173ffffffffffffffffffffffffffffffffffffffff167f8be0079c531659141344cd1fd0a4f28419497f9722a3daafe3b4186f6b6457e060405160405180910390a35050565b611cd48061016c6000396000f3fe6080604052600436106100dd5760003560e01c80638da5cb5b1161007f578063aceb6cc611610059578063aceb6cc6146102dc578063b948348c14610319578063cfbd900f14610349578063f2fde38b14610374576100dd565b80638da5cb5b14610237578063998f6ac0146102625780639e9580f61461029f576100dd565b8063682e54cd116100bb578063682e54cd1461019f578063715018a6146101ca57806371be2e4a146101e1578063893d20e81461020c576100dd565b80630ad182bc146100e25780630b7914301461011f57806350b4471214610161575b600080fd5b3480156100ee57600080fd5b5061010960048036038101906101049190611066565b61039d565b604051610116919061115b565b60405180910390f35b34801561012b57600080fd5b50610146600480360381019061014191906111a9565b610437565b6040516101589695949392919061128d565b60405180910390f35b34801561016d57600080fd5b50610188600480360381019061018391906111a9565b61051b565b6040516101969291906112f5565b60405180910390f35b3480156101ab57600080fd5b506101b461053f565b6040516101c1919061115b565b60405180910390f35b3480156101d657600080fd5b506101df610597565b005b3480156101ed57600080fd5b506101f661061f565b604051610203919061131e565b60405180910390f35b34801561021857600080fd5b50610221610625565b60405161022e9190611339565b60405180910390f35b34801561024357600080fd5b5061024c610634565b6040516102599190611339565b60405180910390f35b34801561026e57600080fd5b50610289600480360381019061028491906111a9565b61065d565b604051610296919061131e565b60405180910390f35b3480156102ab57600080fd5b506102c660048036038101906102c19190611489565b610681565b6040516102d3919061131e565b60405180910390f35b3480156102e857600080fd5b5061030360048036038101906102fe91906111a9565b610839565b604051610310919061131e565b60405180910390f35b610333600480360381019061032e91906111a9565b6109c5565b604051610340919061131e565b60405180910390f35b34801561035557600080fd5b5061035e610d87565b60405161036b919061131e565b60405180910390f35b34801561038057600080fd5b5061039b60048036038101906103969190611066565b610d8d565b005b6060600660008373ffffffffffffffffffffffffffffffffffffffff1673ffffffffffffffffffffffffffffffffffffffff16815260200190815260200160002060000180548060200260200160405190810160405280929190818152602001828054801561042b57602002820191906000526020600020905b815481526020019060010190808311610417575b50505050509050919050565b600460205280600052604060002060009150905080600001805461045a90611527565b80601f016020809104026020016040519081016040528092919081815260200182805461048690611527565b80156104d35780601f106104a8576101008083540402835291602001916104d3565b820191906000526020600020905b8154815290600101906020018083116104b657829003601f168201915b5050505050908060010154908060020160009054906101000a900473ffffffffffffffffffffffffffffffffffffffff16908060030154908060040154908060050154905086565b60076020528060005260406000206000915090508060000154908060010154905082565b6060600580548060200260200160405190810160405280929190818152602001828054801561058d57602002820191906000526020600020905b815481526020019060010190808311610579575b5050505050905090565b61059f610e85565b73ffffffffffffffffffffffffffffffffffffffff166105bd610634565b73ffffffffffffffffffffffffffffffffffffffff1614610613576040517f08c379a000000000000000000000000000000000000000000000000000000000815260040161060a906115a5565b60405180910390fd5b61061d6000610e8d565b565b60025481565b600061062f610634565b905090565b60008060009054906101000a900473ffffffffffffffffffffffffffffffffffffffff16905090565b6005818154811061066d57600080fd5b906000526020600020016000915090505481565b600061068b610e85565b73ffffffffffffffffffffffffffffffffffffffff166106a9610634565b73ffffffffffffffffffffffffffffffffffffffff16146106ff576040517f08c379a00000000000000000000000000000000000000000000000000000000081526004016106f6906115a5565b60405180910390fd5b6000600254905060006040518060c001604052808781526020018381526020013373ffffffffffffffffffffffffffffffffffffffff168152602001868152602001858152602001600081525090508060046000848152602001908152602001600020600082015181600001908051906020019061077e929190610f51565b506020820151816001015560408201518160020160006101000a81548173ffffffffffffffffffffffffffffffffffffffff021916908373ffffffffffffffffffffffffffffffffffffffff160217905550606082015181600301556080820151816004015560a08201518160050155905050600582908060018154018082558091505060019003906000526020600020016000909190919091505560018261082791906115f4565b60028190555081925050509392505050565b600080600160009054906101000a900473ffffffffffffffffffffffffffffffffffffffff1673ffffffffffffffffffffffffffffffffffffffff1663feaf968c6040518163ffffffff1660e01b815260040160a06040518083038186803b1580156108a457600080fd5b505afa1580156108b8573d6000803e3d6000fd5b505050506040513d601f19601f820116820180604052508101906108dc91906116d7565b505050915050600081600160009054906101000a900473ffffffffffffffffffffffffffffffffffffffff1673ffffffffffffffffffffffffffffffffffffffff1663313ce5676040518163ffffffff1660e01b815260040160206040518083038186803b15801561094d57600080fd5b505afa158015610961573d6000803e3d6000fd5b505050506040513d601f19601f82011682018060405250810190610985919061178b565b600a61099191906118eb565b670de0b6b3a76400006109a49190611936565b6109ae91906119bf565b905080846109bc9190611936565b92505050919050565b6000816000600460008381526020019081526020016000206003015490506109ec81610839565b341015610a2e576040517f08c379a0000000000000000000000000000000000000000000000000000000008152600401610a2590611a62565b60405180910390fd5b8360006004600083815260200190815260200160002090508060040154816005015410610a90576040517f08c379a0000000000000000000000000000000000000000000000000000000008152600401610a8790611ace565b60405180910390fd5b853360001515600660008373ffffffffffffffffffffffffffffffffffffffff1673ffffffffffffffffffffffffffffffffffffffff168152602001908152602001600020600201600084815260200190815260200160002060009054906101000a900460ff16151514610b39576040517f08c379a0000000000000000000000000000000000000000000000000000000008152600401610b3090611b3a565b60405180910390fd5b6000600460008a81526020019081526020016000209050600060035490506001600354610b6691906115f4565b60038190555060018260050154610b7d91906115f4565b82600501819055506000600660003373ffffffffffffffffffffffffffffffffffffffff1673ffffffffffffffffffffffffffffffffffffffff16815260200190815260200160002090508060000182908060018154018082558091505060019003906000526020600020016000909190919091505560018160020160008d815260200190815260200160002060006101000a81548160ff021916908315150217905550600060405180604001604052808481526020018d8152509050808260010160008581526020019081526020016000206000820151816000015560208201518160010155905050806007600085815260200190815260200160002060008201518160000155602082015181600101559050506000610ca18560030154610839565b905060008560020160009054906101000a900473ffffffffffffffffffffffffffffffffffffffff1673ffffffffffffffffffffffffffffffffffffffff1682604051610ced90611b8b565b60006040518083038185875af1925050503d8060008114610d2a576040519150601f19603f3d011682016040523d82523d6000602084013e610d2f565b606091505b5050905080610d73576040517f08c379a0000000000000000000000000000000000000000000000000000000008152600401610d6a90611bec565b60405180910390fd5b849c50505050505050505050505050919050565b60035481565b610d95610e85565b73ffffffffffffffffffffffffffffffffffffffff16610db3610634565b73ffffffffffffffffffffffffffffffffffffffff1614610e09576040517f08c379a0000000000000000000000000000000000000000000000000000000008152600401610e00906115a5565b60405180910390fd5b600073ffffffffffffffffffffffffffffffffffffffff168173ffffffffffffffffffffffffffffffffffffffff161415610e79576040517f08c379a0000000000000000000000000000000000000000000000000000000008152600401610e7090611c7e565b60405180910390fd5b610e8281610e8d565b50565b600033905090565b60008060009054906101000a900473ffffffffffffffffffffffffffffffffffffffff169050816000806101000a81548173ffffffffffffffffffffffffffffffffffffffff021916908373ffffffffffffffffffffffffffffffffffffffff1602179055508173ffffffffffffffffffffffffffffffffffffffff168173ffffffffffffffffffffffffffffffffffffffff167f8be0079c531659141344cd1fd0a4f28419497f9722a3daafe3b4186f6b6457e060405160405180910390a35050565b828054610f5d90611527565b90600052602060002090601f016020900481019282610f7f5760008555610fc6565b82601f10610f9857805160ff1916838001178555610fc6565b82800160010185558215610fc6579182015b82811115610fc5578251825591602001919060010190610faa565b5b509050610fd39190610fd7565b5090565b5b80821115610ff0576000816000905550600101610fd8565b5090565b6000604051905090565b600080fd5b600080fd5b600073ffffffffffffffffffffffffffffffffffffffff82169050919050565b600061103382611008565b9050919050565b61104381611028565b811461104e57600080fd5b50565b6000813590506110608161103a565b92915050565b60006020828403121561107c5761107b610ffe565b5b600061108a84828501611051565b91505092915050565b600081519050919050565b600082825260208201905092915050565b6000819050602082019050919050565b6000819050919050565b6110d2816110bf565b82525050565b60006110e483836110c9565b60208301905092915050565b6000602082019050919050565b600061110882611093565b611112818561109e565b935061111d836110af565b8060005b8381101561114e57815161113588826110d8565b9750611140836110f0565b925050600181019050611121565b5085935050505092915050565b6000602082019050818103600083015261117581846110fd565b905092915050565b611186816110bf565b811461119157600080fd5b50565b6000813590506111a38161117d565b92915050565b6000602082840312156111bf576111be610ffe565b5b60006111cd84828501611194565b91505092915050565b600081519050919050565b600082825260208201905092915050565b60005b838110156112105780820151818401526020810190506111f5565b8381111561121f576000848401525b50505050565b6000601f19601f8301169050919050565b6000611241826111d6565b61124b81856111e1565b935061125b8185602086016111f2565b61126481611225565b840191505092915050565b611278816110bf565b82525050565b61128781611028565b82525050565b600060c08201905081810360008301526112a78189611236565b90506112b6602083018861126f565b6112c3604083018761127e565b6112d0606083018661126f565b6112dd608083018561126f565b6112ea60a083018461126f565b979650505050505050565b600060408201905061130a600083018561126f565b611317602083018461126f565b9392505050565b6000602082019050611333600083018461126f565b92915050565b600060208201905061134e600083018461127e565b92915050565b600080fd5b600080fd5b7f4e487b7100000000000000000000000000000000000000000000000000000000600052604160045260246000fd5b61139682611225565b810181811067ffffffffffffffff821117156113b5576113b461135e565b5b80604052505050565b60006113c8610ff4565b90506113d4828261138d565b919050565b600067ffffffffffffffff8211156113f4576113f361135e565b5b6113fd82611225565b9050602081019050919050565b82818337600083830152505050565b600061142c611427846113d9565b6113be565b90508281526020810184848401111561144857611447611359565b5b61145384828561140a565b509392505050565b600082601f8301126114705761146f611354565b5b8135611480848260208601611419565b91505092915050565b6000806000606084860312156114a2576114a1610ffe565b5b600084013567ffffffffffffffff8111156114c0576114bf611003565b5b6114cc8682870161145b565b93505060206114dd86828701611194565b92505060406114ee86828701611194565b9150509250925092565b7f4e487b7100000000000000000000000000000000000000000000000000000000600052602260045260246000fd5b6000600282049050600182168061153f57607f821691505b60208210811415611553576115526114f8565b5b50919050565b7f4f776e61626c653a2063616c6c6572206973206e6f7420746865206f776e6572600082015250565b600061158f6020836111e1565b915061159a82611559565b602082019050919050565b600060208201905081810360008301526115be81611582565b9050919050565b7f4e487b7100000000000000000000000000000000000000000000000000000000600052601160045260246000fd5b60006115ff826110bf565b915061160a836110bf565b9250827fffffffffffffffffffffffffffffffffffffffffffffffffffffffffffffffff0382111561163f5761163e6115c5565b5b828201905092915050565b600069ffffffffffffffffffff82169050919050565b6116698161164a565b811461167457600080fd5b50565b60008151905061168681611660565b92915050565b6000819050919050565b61169f8161168c565b81146116aa57600080fd5b50565b6000815190506116bc81611696565b92915050565b6000815190506116d18161117d565b92915050565b600080600080600060a086880312156116f3576116f2610ffe565b5b600061170188828901611677565b9550506020611712888289016116ad565b9450506040611723888289016116c2565b9350506060611734888289016116c2565b925050608061174588828901611677565b9150509295509295909350565b600060ff82169050919050565b61176881611752565b811461177357600080fd5b50565b6000815190506117858161175f565b92915050565b6000602082840312156117a1576117a0610ffe565b5b60006117af84828501611776565b91505092915050565b60008160011c9050919050565b6000808291508390505b600185111561180f578086048111156117eb576117ea6115c5565b5b60018516156117fa5780820291505b8081029050611808856117b8565b94506117cf565b94509492505050565b60008261182857600190506118e4565b8161183657600090506118e4565b816001811461184c576002811461185657611885565b60019150506118e4565b60ff841115611868576118676115c5565b5b8360020a91508482111561187f5761187e6115c5565b5b506118e4565b5060208310610133831016604e8410600b84101617156118ba5782820a9050838111156118b5576118b46115c5565b5b6118e4565b6118c784848460016117c5565b925090508184048111156118de576118dd6115c5565b5b81810290505b9392505050565b60006118f6826110bf565b915061190183611752565b925061192e7fffffffffffffffffffffffffffffffffffffffffffffffffffffffffffffffff8484611818565b905092915050565b6000611941826110bf565b915061194c836110bf565b9250817fffffffffffffffffffffffffffffffffffffffffffffffffffffffffffffffff0483118215151615611985576119846115c5565b5b828202905092915050565b7f4e487b7100000000000000000000000000000000000000000000000000000000600052601260045260246000fd5b60006119ca826110bf565b91506119d5836110bf565b9250826119e5576119e4611990565b5b828204905092915050565b7f46756e64732073656e74206d75737420636f766572207072696365206f66207460008201527f69636b6574210000000000000000000000000000000000000000000000000000602082015250565b6000611a4c6026836111e1565b9150611a57826119f0565b604082019050919050565b60006020820190508181036000830152611a7b81611a3f565b9050919050565b7f4e6f2072656d61696e696e67207469636b657473210000000000000000000000600082015250565b6000611ab86015836111e1565b9150611ac382611a82565b602082019050919050565b60006020820190508181036000830152611ae781611aab565b9050919050565b7f5573657220616c7265616479206f776e732061207469636b6574210000000000600082015250565b6000611b24601b836111e1565b9150611b2f82611aee565b602082019050919050565b60006020820190508181036000830152611b5381611b17565b9050919050565b600081905092915050565b50565b6000611b75600083611b5a565b9150611b8082611b65565b600082019050919050565b6000611b9682611b68565b9150819050919050565b7f5472616e73666572206661696c65642e00000000000000000000000000000000600082015250565b6000611bd66010836111e1565b9150611be182611ba0565b602082019050919050565b60006020820190508181036000830152611c0581611bc9565b9050919050565b7f4f776e61626c653a206e6577206f776e657220697320746865207a65726f206160008201527f6464726573730000000000000000000000000000000000000000000000000000602082015250565b6000611c686026836111e1565b9150611c7382611c0c565b604082019050919050565b60006020820190508181036000830152611c9781611c5b565b905091905056fea264697066735822122024ab355f4d702dbf42e85f14b1e40628b456182882c4f73f88006eedc025e9db64736f6c63430008090033",
  "immutableReferences": {},
  "source": "// SPDX-License-Identifier: MIT\npragma solidity 0.8.9;\n\nimport \"@chainlink/contracts/src/v0.8/interfaces/AggregatorV3Interface.sol\";\nimport \"@openzeppelin/contracts/access/Ownable.sol\";\n\n/// @title An event ticketing contract\n/// @author Kevin Lu\n/// @notice This contract implements the most basic event ticketing requirements of event creation and ticket purchasing\ncontract Ticketing is Ownable {\n\n  AggregatorV3Interface internal priceFeed;\n\n  /// @notice Stores the number of created events (which also is the event id for now)\n  uint public eventCount = 0;\n  /// @notice Stores the number of purchased tickets (which also is the ticket id for now)\n  uint public ticketCount = 0;\n  /// @notice Stores a mapping of event id to Event struct\n  mapping(uint => Event) public events;\n  /// @notice Stores an array of created event ids\n  uint[] public eventIds;\n  /// @notice Stores a mapping of attendee address to Attendee struct\n  mapping(address => Attendee) attendees;\n  /// @notice Stores a mapping of ticket id to Ticket struct\n  mapping(uint => Ticket) public tickets;\n\n  struct Event {\n    string name;\n    uint id;\n    address organizer;\n    uint pricePerTicketInUsd;\n    uint maxTickets;\n    uint ticketCount;\n  }\n\n  struct Ticket {\n    uint ticketId;\n    uint eventId;\n  }\n\n  struct Attendee {\n    uint[] ticketIds;\n    mapping(uint => Ticket) tickets;  // ticket id to Ticket struct\n    mapping(uint => bool) events;  // event id to bool (true if has ticket for event)\n  }\n\n  constructor() {\n    priceFeed = AggregatorV3Interface(0x9326BFA02ADD2366b30bacB125260Af641031331);\n  }\n\n  modifier paidEnough(uint _eventID) {\n    uint pricePerTicketInUsd = events[_eventID].pricePerTicketInUsd;\n    require(msg.value >= getPriceInWei(pricePerTicketInUsd), \"Funds sent must cover price of ticket!\");\n    _;\n  }\n\n  modifier hasRemainingTickets(uint _eventID) {\n    Event storage eventStruct = events[_eventID];\n    require(eventStruct.ticketCount < eventStruct.maxTickets, \"No remaining tickets!\");\n    _;\n  }\n\n  modifier doesNotAlreadyOwn(uint _eventID, address _purchaser) {\n    require(attendees[_purchaser].events[_eventID] == false, \"User already owns a ticket!\");\n    _;\n  }\n\n  /// @notice Calculate USD ticket price in wei\n  /// @param _priceInUsd The price of a ticket in USD\n  /// @return Ticket price in wei\n  function getPriceInWei(uint _priceInUsd) public view virtual returns (uint) {\n    (,int price,,,) = priceFeed.latestRoundData();\n    uint usdToWei = (10**18)*(10**priceFeed.decimals())/uint(price);\n    return _priceInUsd * usdToWei;\n  }\n\n  /// @notice Create an event with provided parameters. Only the contract owner (deployer) can perform this action.\n  /// @param _name Name of event\n  /// @param _pricePerTicketInUsd The price of a ticket in USD\n  /// @param _maxTickets Max tickets to sell\n  /// @return Created event id\n  function createEvent(string memory _name, uint _pricePerTicketInUsd, uint _maxTickets) public onlyOwner() returns (uint) {\n    // registers a new event and returns the newly created event id\n    uint eventId = eventCount;\n\n    Event memory eventStruct = Event({\n      name: _name,\n      id: eventId,\n      organizer: msg.sender,\n      pricePerTicketInUsd: _pricePerTicketInUsd,\n      maxTickets: _maxTickets,\n      ticketCount: 0\n    });\n\n    events[eventId] = eventStruct;\n    eventIds.push(eventId);\n\n    eventCount = eventId + 1;\n\n    return eventId;\n  }\n\n  /// @notice Purchase a ticket for the given event id\n  /// @param _eventID Event id to purchase ticket from\n  /// @return Purchased ticket id\n  function purchaseTicket(uint _eventID) public payable paidEnough(_eventID) hasRemainingTickets(_eventID) doesNotAlreadyOwn(_eventID, msg.sender) returns (uint) {\n    // purchase a ticket from the provided event\n    Event storage eventStruct = events[_eventID];\n    uint ticketId = ticketCount;\n    ticketCount = ticketCount + 1;\n    eventStruct.ticketCount = eventStruct.ticketCount  + 1;\n\n    Attendee storage attendee = attendees[msg.sender];\n    attendee.ticketIds.push(ticketId);\n    attendee.events[_eventID] = true;\n    Ticket memory ticket = Ticket({\n      ticketId: ticketId,\n      eventId: _eventID\n    });\n    attendee.tickets[ticketId] = ticket;\n    tickets[ticketId] = ticket;\n\n    uint priceInWei = getPriceInWei(eventStruct.pricePerTicketInUsd);\n\n    (bool success, ) = eventStruct.organizer.call{value: priceInWei}('');\n    require(success, \"Transfer failed.\");\n\n    return ticketId;\n  }\n\n  /// @notice Get all event ids\n  /// @return Event ids\n  function getAllEventIds() public view returns (uint[] memory) {\n    return eventIds;\n  }\n\n  /// @notice Get ticket ids for a given attendee\n  /// @param attendee Attendee address\n  /// @return Ticket ids owned by the attendee address\n  function getTickets(address attendee) public view returns (uint[] memory) {\n    return attendees[attendee].ticketIds;\n  }\n\n  /// @notice Get owner of the contract (deployer)\n  /// @return Owner address\n  function getOwner() public view returns (address) {\n    return owner();\n  }\n}\n",
  "sourcePath": "/Users/kevin/consensys/blockchain-developer-bootcamp-final-project/web3/contracts/Ticketing.sol",
  "compiler": {
    "name": "solc",
    "version": "0.8.9+commit.e5eed63a.Emscripten.clang"
  },
  "schemaVersion": "3.4.3",
  "updatedAt": "2021-12-01T01:18:54.761Z",
  "devdoc": {
    "author": "Kevin Lu",
    "kind": "dev",
    "methods": {
      "createEvent(string,uint256,uint256)": {
        "params": {
          "_maxTickets": "Max tickets to sell",
          "_name": "Name of event",
          "_pricePerTicketInUsd": "The price of a ticket in USD"
        },
        "returns": {
          "_0": "Created event id"
        }
      },
      "getAllEventIds()": {
        "returns": {
          "_0": "Event ids"
        }
      },
      "getOwner()": {
        "returns": {
          "_0": "Owner address"
        }
      },
      "getPriceInWei(uint256)": {
        "params": {
          "_priceInUsd": "The price of a ticket in USD"
        },
        "returns": {
          "_0": "Ticket price in wei"
        }
      },
      "getTickets(address)": {
        "params": {
          "attendee": "Attendee address"
        },
        "returns": {
          "_0": "Ticket ids owned by the attendee address"
        }
      },
      "owner()": {
        "details": "Returns the address of the current owner."
      },
      "purchaseTicket(uint256)": {
        "params": {
          "_eventID": "Event id to purchase ticket from"
        },
        "returns": {
          "_0": "Purchased ticket id"
        }
      },
      "renounceOwnership()": {
        "details": "Leaves the contract without owner. It will not be possible to call `onlyOwner` functions anymore. Can only be called by the current owner. NOTE: Renouncing ownership will leave the contract without an owner, thereby removing any functionality that is only available to the owner."
      },
      "transferOwnership(address)": {
        "details": "Transfers ownership of the contract to a new account (`newOwner`). Can only be called by the current owner."
      }
    },
    "title": "An event ticketing contract",
    "version": 1
  },
  "userdoc": {
    "kind": "user",
    "methods": {
      "createEvent(string,uint256,uint256)": {
        "notice": "Create an event with provided parameters. Only the contract owner (deployer) can perform this action."
      },
      "eventCount()": {
        "notice": "Stores the number of created events (which also is the event id for now)"
      },
      "eventIds(uint256)": {
        "notice": "Stores an array of created event ids"
      },
      "events(uint256)": {
        "notice": "Stores a mapping of event id to Event struct"
      },
      "getAllEventIds()": {
        "notice": "Get all event ids"
      },
      "getOwner()": {
        "notice": "Get owner of the contract (deployer)"
      },
      "getPriceInWei(uint256)": {
        "notice": "Calculate USD ticket price in wei"
      },
      "getTickets(address)": {
        "notice": "Get ticket ids for a given attendee"
      },
      "purchaseTicket(uint256)": {
        "notice": "Purchase a ticket for the given event id"
      },
      "ticketCount()": {
        "notice": "Stores the number of purchased tickets (which also is the ticket id for now)"
      },
      "tickets(uint256)": {
        "notice": "Stores a mapping of ticket id to Ticket struct"
      }
    },
    "notice": "This contract implements the most basic event ticketing requirements of event creation and ticket purchasing",
    "version": 1
  }
}